:020000040800F2
:10000000282100202117000801030008030300082D
:10001000070300080B0300080F030008000000009E
:1000200000000000000000000000000013030008B2
:10003000150300080000000017030008190300085A
:100040003B1700083B1700083B1700083B17000848
:100050003B1700083B1700083B1700083B17000838
:100060003B1700083B1700083B1700083B17000828
:100070003B1700083B1700083B1700083B17000818
:100080003B1700083B1700083B1700083B17000808
:100090003B1700083B1700083B1700083B170008F8
:1000A0003B1700083B1700083B1700083B170008E8
:1000B0003B1700083B1700083B1700083B170008D8
:1000C0003B1700083B1700083B1700083B170008C8
:1000D0003B170008F90C0008791100083B170008CD
:1000E0003B1700083B1700083B17000800F002F818
:1000F00000F090F80AA090E8000C82448344AAF132
:100100000107DA4501D100F085F8AFF2090EBAE82F
:100110000F0013F0010F18BFFB1A43F0010318473B
:100120009C500000BC500000103A24BF78C878C131
:10013000FAD8520724BF30C830C144BF04680C60ED
:10014000704700000023002400250026103A28BF35
:1001500078C1FBD8520728BF30C148BF0B60704739
:100160006E2903F04480702903F0AF81662904F002
:10017000B787652904F0B487672904F0B18761293E
:10018000AFF3008003681B0A28BF41F08001692992
:1001900002F03486642902F03186752902F02E8639
:1001A0006F2903F03D81782903F07B81E92903F071
:1001B000D780E42903F0D480F52903F0D180EF291A
:1001C00003F03A81F82903F07A810368DB0928BF3C
:1001D00041F08001632903F04680732903F04B80CE
:1001E000E32903F0D983F32903F0DE83002070476D
:1001F0001FB503F02FFC04000020002104F016F9C5
:10020000401C60600020002104F0FAF8E0601FBD8F
:1002100010B510BD03F0F0FB1146FFF7E9FF00F049
:1002200009F803F0C9FC03B4FFF7F2FF03BC00F0C8
:10023000D7FC00004FF47A7A00F0A8F94FF4A060E0
:1002400001F08EFA4FF4E13000F0D9FC00F09AFA98
:10025000012000F0E4FA00F062FC00F0DFFE4FF451
:10026000E13001F00EF82DE0504604F054FB8046DA
:10027000154A164B04F07AFB06460022144B04F094
:1002800073FC044604F01AFB1FFA80FB59461F203A
:1002900000F065FC00F014FB4FF47A7000F0B3F945
:1002A0000C48007870B100200A49087001F0E0F8AD
:1002B00009A002F031FD0CA10DA001F017F90120F9
:1002C0000E490870D0E700009EEFA7C64B370A40E2
:1002D0000000E040530000206D71747420636F6E65
:1002E0006E6563746564000068656C6C6F00000087
:1002F00022746573745F646174612200520000208F
:10030000704700BFFEE700BFFEE700BFFEE700BF8B
:10031000FEE7704770477047704700000CB500203B
:10032000019000906C48006840F480306A49086091
:1003300000BF6948006800F4003000900198401C3C
:100340000190009818B90198B0F5A06FF1D16248FA
:10035000006800F4003010B10120009001E000209E
:1003600000900098012843D15C48006840F01000DC
:100370005A4908600846006820F0030008600846F3
:10038000006840F0020008605348406852494860E5
:100390000846406848600846406840F4806048600D
:1003A0000846406820F47C1048600846406840F4E5
:1003B000E81048600846006840F08070086000BFA0
:1003C0004548006800F000700028F9D042484068B5
:1003D00020F00300404948600846406840F00200B1
:1003E000486000BF3C48406800F00C000828F9D184
:1003F0000CBD10B5FFF792FF10BD10B53648006870
:1004000040F001003449086008464068344908401B
:100410003149486008460068324908402E49086062
:100420000846006820F4802008600846406820F4F0
:10043000FE0048604FF41F008860FFF7DAFF4FF0BE
:1004400000602949086010BD10B50021002000227D
:10045000214B5B6803F00C0121B1042906D0082967
:1004600028D107E0214B224C236027E01F4B204C72
:10047000236023E0184B5B6803F47010164B5B6835
:1004800003F48032022303EB904022B9194B43431B
:10049000174C23600DE0104B5B6803F4003323B16D
:1004A000144B4343124C236003E0104B4343104C66
:1004B000236003E00D4B0E4C236000BF00BF064BD2
:1004C0005B68C3F303130C4CE15C094B1B68CB4026
:1004D000074C236010BD00000010024000200240C5
:1004E0000000FFF8FFFFF6FE08ED00E000127A00C2
:1004F0000C00002000093D001000002010B586B05F
:1005000004460020ADF804004FF48270ADF80600F8
:100510000020ADF80800ADF80A000120ADF80C008D
:100520004002ADF80E002020ADF810000020ADF81C
:1005300012000720ADF8140001A9204602F052F87D
:100540000121204602F0F3F806B010BD10B50446B4
:1005500000BF02210C4802F06EF90028F9D02146B4
:10056000094802F015F900BF0121074802F063F9BC
:100570000028F9D0044802F00DF9C0B210BD10B542
:10058000FF20FFF7E3FF10BD0038004010B56FF00B
:10059000040001F034F92E4800682E49B0FBF1F058
:1005A0002D4908700846007800EB4001C1EBC010EF
:1005B0004FF6FF7101EAC0002849088010BD0146CE
:1005C000254A12784A434FF0E0235A6100229A618B
:1005D0001A46126942F001021A6100BF4FF0E02290
:1005E000106900F001021AB100F48032002AF5D03F
:1005F0004FF0E022126922F001024FF0E0231A616D
:1006000000229A6170470146144A12884A434FF00B
:10061000E0235A6100229A611A46126942F00102EF
:100620001A6100BF4FF0E022106900F001021AB118
:1006300000F48032002AF5D04FF0E022126922F057
:1006400001024FF0E0231A6100229A617047000016
:100650000C00002000127A00200000202200002060
:100660002DE9F04105460E4617464FF48051D74814
:1006700001F01DFB3220FFF7A2FF002405E0285DFA
:10068000FFF764FF3055601CC4B2BC42F7DB322078
:10069000FFF795FF4FF48051CC4801F006FBBDE811
:1006A000F0811FB5062003900122694603A8FFF7D9
:1006B000D7FF1FBD1FB5082003900122694603A87C
:1006C000FFF7CEFF1FBD1FB5022003900122694630
:1006D00003A8FFF7C5FF1FBD1FB51020039001221F
:1006E000694603A8FFF7BCFF1FBDF0B585B00646FD
:1006F0000F4614460020039004900C2000EA870067
:1007000040F04000611E01F0030108439DF80C1009
:100710000844C0B28DF80C00002504E0715D03AA06
:10072000681C1154C5B2A542F8DB601CC2B2694610
:1007300003A8FFF795FF05B0F0BD7CB505460E4652
:100740001446A3A103C9CDE900010C2000EA8600EC
:1007500040F02000611E01F0030108438DF8000005
:10076000601CC2B229466846FFF77AFF7CBD38B5E7
:10077000044699A000680090032221466846FFF7CE
:100780006FFF38BD08B50121880301F0AEFE0121DD
:10079000082001F09DFE0121102001F099FE4FF488
:1007A0000050ADF8000003208DF8020018208DF8ED
:1007B00003006946854801F0CBF94FF48040ADF85D
:1007C00000006946814801F0C3F94FF40040ADF8DC
:1007D000000069467D4801F0BBF94FF48050ADF848
:1007E000000010208DF803006946784801F0B0F948
:1007F0004FF48051754801F058FA7848FFF77EFEB3
:100800004FF48070ADF8000003208DF8020028201E
:100810008DF803006946724801F09AF908BD1FB5CA
:10082000044670A0006803906FA000680290FFF774
:1008300038FF0A20FFF7E7FE012C05D10422002132
:1008400003A8FFF752FF04E00422002102A8FFF7EB
:100850004CFF0A20FFF7D7FE042200216846FFF76D
:100860006CFF0A20FFF7CFFEFFF724FF1FBD2DE925
:10087000FC4159A0006801900322694601A8FFF7D6
:10088000EFFE9DF8001009049DF8012001EB022104
:100890009DF80220881804F03EF804460D4653489F
:1008A0000CC82046294604F061F806460022504B49
:1008B00003F0ACFE04460D4620462946BDE8FC8107
:1008C0002DE9F04786B04B480078012858D1002028
:1008D0004949086082462BE0FFF7C9FF064600221F
:1008E0004FF0804304F042F804460022434B04F0EA
:1008F00047F90022424BCDE9000104F037F8804669
:1009000089463D48006804F025FA42464B46CDE949
:10091000020103F0D3FDCDE9040103F09DFD36494A
:1009200008600220FFF76FFE0AF1010000F0FF0AE5
:10093000BAF1030FD0DB00212F48006804F09FFBC1
:100940000DD230492C48006804F03CFA054604F00A
:10095000FBFA044621462CA002F0DEF932E02648DC
:10096000006880F000462749304604F02BFA05461F
:1009700004F0EAFA0446214625A002F0CDF921E070
:100980001C48007802281DD101201A490870FFF781
:100990006EFF804600224FF0804303F0E7FF002205
:1009A000164BCDE9040104F0EBF806460022144B87
:1009B00003F0DCFF044603F04FFD174908600120F7
:1009C000FFF72DFF06B0BDE8F0870000000C0140E6
:1009D00000FFFFFFFF000000FFFFFF0000380040A6
:1009E0000008014091A45800A1A45800380000203C
:1009F000000060412D000020300000200000044075
:100A00000088C3400000404050253035640000009D
:100A10004E253035640000003400002070B50546D6
:100A20000E4601206B490860FFF7C9FD00206A49A6
:100A3000C1F894016749091D086007242BE005F0FF
:100A40008000802804D1012062490831086003E059
:100A500000206049083108600120FFF7B0FD012047
:100A60005C49091D08600A20FFF7A9FD45FA04F05A
:100A700000EBD0714910A0EB4101574AC2F89C111C
:100A80000A20FFF79CFD00205249091D08600A203A
:100A9000FFF795FD641E002CD1DA0F2429E006F43F
:100AA0000040B0F5004F04D101204A4908310860E8
:100AB00003E0002047490831086001204549091D2D
:100AC00008600A20FFF77BFD46FA04F000EBD071C6
:100AD0004910A0EB4101404AC2F89C110A20FFF7DF
:100AE0006EFD00203B49091D08600A20FFF767FDE5
:100AF000641E002CD3DA70BD08B50121082001F076
:100B0000E7FCF820ADF8000010208DF8030003206A
:100B10008DF802006946314801F01AF808BD10B599
:100B2000FFF7EAFF20212D4801F0BFF810212B48E4
:100B300001F0BBF84021294801F0B9F8802127488D
:100B400001F0B5F801212820FFF768FF03212020DC
:100B5000FFF764FF01213820FFF760FF10BD70B57B
:100B600005460C46182D0BD1B4F5803F03DA21461B
:100B7000FFF754FF04E04FF6FF711820FFF74EFF18
:100B8000192D0CD1B4F5803F04DA21461920FFF766
:100B900045FF04E04FF6FF711920FFF73FFF1F2DBF
:100BA0000CD1B4F5803F04DA21461F20FFF736FF51
:100BB00004E04FF6FF711F20FFF730FF00200549CA
:100BC000083908606420FFF7FAFC01200249C1F8E7
:100BD0008C0170BD9481214200802142000C0140B3
:100BE000014600BF704700BFF34A128802F040027E
:100BF000002AF9D0C2B2F04B1B1D1A80704710B505
:100C000086B004460121042001F062FC0121880322
:100C100001F05EFC4FF40070ADF8140018208DF860
:100C2000170003208DF8160005A9E44800F090FF96
:100C30004FF48060ADF8140004208DF8170005A96A
:100C4000DE4800F085FF01940020ADF810000C2074
:100C5000ADF80E000020ADF80C00ADF80A00ADF8BC
:100C6000080001A9D44801F004F9012240F22551FD
:100C7000D14801F096F925208DF8000001208DF86B
:100C800003008DF801008DF80200684600F06DFD4C
:100C90000121C94801F079F906B010BD70B50446CC
:100CA0000D462946204601F0DDF900BF802120468F
:100CB00001F046FA0028F9D070BD70B504460D4623
:100CC000C5F30800A08000BF8021204601F038FA5B
:100CD0000028F9D070BD2DE9F04107460D461646B3
:100CE000002400BF04E0315DB348FFF7D7FF641C68
:100CF000AC42F8DBBDE8F0812DE9F05F40F2255110
:100D0000AD4801F033FA00287ED0002422E04FF0F5
:100D1000000907E009F101001FFA80F9B9F57A7FAF
:100D200000DD06E040F22551A34801F009FA002851
:100D3000F0D000BFB9F57A7F05DD4520A0490870E5
:100D4000A048048008E09C4801F090F99E490855AD
:100D5000601CC4B2062CDADB00BF062C06DA9A4807
:100D60000078632802D101209849087098480078DB
:100D700001281FD150209249087096480078002819
:100D80006CD0954800894FF47A714843924989891B
:100D900001EBC10202EB011100EB81008E49098ACF
:100DA00001EB810100EB41008B49898A08448549A8
:100DB000088053E0062C51D183480078402803DD99
:100DC000814800785B2807DB7F48007860283EDD9B
:100DD0007D4800787B283ADA7B4880783A2836DAF2
:100DE000794880782F2832DD7748C0783A282EDA83
:100DF0007548C0782F282ADD734800793A2826DA0A
:100E0000714800792F2800E0B1E020DD6E480078BD
:100E10006B4908706C48807830384FF47A714843D9
:100E20006949C978303901EBC10202EB011100EBCD
:100E3000810165480079303800EB800001EB40010A
:100E400061484079303808445E49088006E0412016
:100E50005B49087004F57A705A49088040F22551C0
:100E6000554801F0ADF956480078452872D04E2813
:100E700039D0502802D0532878D173E051480088E7
:100E800003F060FD0546554A554B03F06FFD824661
:100E90000022544B03F012FB074603F00FFD5249AA
:100EA0000880084601881F20FFF759FE0320FFF73E
:100EB000AAFB4748007840B9052000F0F1F8054644
:100EC00029464AA001F028FF0CE0052000F0E8F8D0
:100ED00005462A4645A1474801F02AFF454946A054
:100EE00000F004FB42E03748008803F02BFD074682
:100EF0003A4A3B4B03F03AFD05460022394B40335A
:100F000003F032FE824603F0D9FC374908800846D8
:100F100001881F20FFF723FE0320FFF774FB2C48F6
:100F2000007840B9052000F0BBF80546294635A0F9
:100F300001F0F2FE0CE0052000F0B2F805462A466A
:100F400030A12C4801F0F4FE2A492BA000F0CEFA83
:100F50000CE0FFE71B480288194801782BA001F03C
:100F6000DBFE03E02BA001F0D7FE00BF21E008214B
:100F7000114801F0E5F8E0B10F48B0F80090001D0D
:100F8000B0F8009024480088401C23490880452080
:100F90000B4908702048008800F5FA60094908806C
:100FA0001D48008840F2E731884202D100201A49EA
:100FB0000880BDE8F09F00000038014000080140B3
:100FC000440000204600002048000020530000207C
:100FD000520000206C000020C40A00209EEFA7C62B
:100FE0004B370A40C0FFDF4050000020503A2564D4
:100FF000000000008400002022746573745F646147
:10100000746122004E3A25640000000025632564C7
:101010000D0A00004A0000004E00002000B587B015
:1010200001214FF4017001F053FA4FF4404001F0F8
:10103000B3F92020ADF8040000208DF8070001A9C5
:101040002D4800F085FD2D4801F02CFC0020029079
:101050008DF80C008DF80D004FF4602004900020F6
:10106000059001208DF8180002A9244801F041FCE8
:101070000121224801F069FC204801F088FC00BFF2
:101080001E4801F089FC0028FAD11C4801F08EFCB2
:1010900000BF1A4801F08FFC0028FAD107B000BD4C
:1010A00010B50446072301222146144801F0B9FC7B
:1010B0000121124801F089FC00BF02210F4801F014
:1010C000F5FD0028F9D00D4801F012FD10BD2DE905
:1010D000F04107460C460025002605E03846FFF79C
:1010E000DFFF0544701CC6B2A642F7DBB5FBF4F087
:1010F00080B2BDE8F08100000008014000240140FA
:1011000010B504460021204600F065FCAF48018878
:10111000204600F075FC0121204600F05CFC10BD6B
:1011200010B54FF48060AA49C860AA48007878B921
:101130000120A8490870A8480288A849A84801F0D9
:101140008EFFA848A2494860A74800F019FC0EE0AD
:101150000020A0490870A0480288A249A04801F0D8
:101160007EFF9E489A4948609F4800F009FC012193
:101170009D4800F030FC10BD10B510219B4800F0D8
:10118000DFFF58B340F22441984800F0E6FF97484B
:1011900000889648001D00880021934800F01BFC41
:1011A000914800F02FFCC0F500708B490880FFF7D4
:1011B000B7FF8D48FFF7A4FF8DA000F023F930B1F1
:1011C00001208C49087000208349088010BD00F080
:1011D000CFF981480188824801F073FF00BFF5E72D
:1011E0002DE9F04107460D4616461C4601210846EA
:1011F00001F061F9384600F021FB7448048074481E
:10120000056046600020724988600846C46000207E
:1012100008618020486100208861C86108624FF43D
:101220000050486200208862384600F0A9FB6E48F2
:101230001438FFF765FFBDE8F08170B58CB0064645
:101240000C4615460121084601F035F9304600F0FC
:10125000F5FA019402951020039000200490059067
:101260008020069000200790089009904FF480504D
:101270000A9000200B9001A9304600F081FB0CB0D1
:1012800070BD10B586B004460121042001F020F99C
:101290000121480401F029F9544800F0A7FD042079
:1012A000ADF8100003208DF8120018208DF81300FF
:1012B00004A9514800F04CFC0820ADF810000420AF
:1012C0008DF8130004A94C4800F042FC0094002063
:1012D000ADF80400ADF80600ADF80800ADF80C005C
:1012E0000C20ADF80A006946404800F0C2FD01221A
:1012F00080213E4800F07AFE404A3C49091D3A48A8
:101300001430FFF79AFF01224021384800F06EFEAA
:101310004FF40073314A3549091D3348FFF760FF28
:101320000121324800F031FE012240F224412F48D1
:1013300000F037FE26208DF8140002208DF81500ED
:1013400003208DF8160001208DF8170005A800F085
:101350000CFA00202049088006B010BD70B5044684
:101360000D460021204600F036FB2946204600F0BD
:1013700047FB0121204600F02EFB70BD0FB438B5AD
:1013800005A800901D48009A049901F0B3FC0020C4
:10139000009000BF1448143000F034FB0028F9D14D
:1013A000164801F03DFEC4B221460F481430FFF745
:1013B000D5FF38BC5DF814FB10B5114800F045FBB3
:1013C00018B10F48103800F054FB10BD6000002029
:1013D000980A00205C0000205E0000209806002093
:1013E00098040020980800206C000240004400404F
:1013F0004F4B0000640000200008014098000020CE
:101400002000001010B5044600207F497F4A128852
:10141000885421467C4801F0F1FD10BD10B504460A
:101420000021794A79480088401C1154214602F174
:10143000190001F0E3FD10BD70B505460C46002013
:1014400073490870294673A0FFF798FF06E0012052
:10145000FFF7D9F86E48007800B103E0601E80B253
:10146000041EF4D100BF0CB9012070BD0020FCE7C0
:1014700010B502E069A001F04FFC4FF4FA616CA0D6
:10148000FFF7DAFF0028F5D170A001F045FC00BF9E
:10149000C8216FA0FFF7D0FF0028F9D100BF4FF49B
:1014A000FA716DA0FFF7C8FF0028F8D14FF47A70E9
:1014B000FFF7A9F800BF4FF47A7174A0FFF7BCFFE3
:1014C0000028F8D100BF4FF4FA7179A0FFF7B4FFFC
:1014D0000028F8D15DA001F01FFC4FF4FA70FFF76F
:1014E00092F8002049490880012010BD30B595B020
:1014F00004460D460020454908802B46224673A12C
:1015000001A801F015FC02E0012077490870642170
:1015100001A8FFF791FF0028F6D1734908703B49F5
:101520000880012015B030BD014600200A783AB18C
:101530000A78303A02EB4203C3EBC21200EBC2005E
:101540004A783AB10A78303A02EBC20303EB02124E
:1015500000EB82008A782AB10A78303A02EB8202E4
:1015600000EB4200CA7812B10A78303A1044704752
:1015700070B500245D480068401C5C4908605CA0B0
:10158000FFF74CFF30B320481D30FFF7CDFF054675
:10159000294658A001F0C0FB1B481D30FFF7C4FFCF
:1015A00056490A780978491C544B1970544941F836
:1015B000220016480088282821DD52A112481E303A
:1015C00001F01CFD0446D4B148480068401C47495E
:1015D000086014E04CA0FFF721FF80B94BA0FFF793
:1015E0001DFF18B101204B49087008E04AA0FFF721
:1015F00015FF18B100204749087000E070BD0020B9
:101600000249088000BFF9E7980400205E0000202E
:101610006400002025730D0A00000000636F6E6EE9
:10162000656374696E6720776966692F722F6E0033
:1016300041542B43574A41503D22436F706C652201
:101640002C22313233343536373822002E00000058
:10165000415445300000000041542B4D5154545525
:101660005345524346473D302C312C22455350229E
:101670002C22657370222C223132333435363738C0
:101680003930222C302C302C2222000041542B4D9A
:10169000515454434F4E4E3D302C22382E31333668
:1016A0002E34312E3130222C313838332C3000009A
:1016B00041542B4D5154545355423D302C22737597
:1016C000625F6D7367222C300000000041542B4D87
:1016D0005154545055423D302C25732C22257322F1
:1016E0002C302C3000000000650000206800002035
:1016F0005000000025640D0A000000006C0000206E
:10170000C40A0020503A00004E3A0000737461721F
:10171000740000000000002073746F70000000006F
:101720000948804709480047FEE7FEE7FEE7FEE775
:10173000FEE7FEE7FEE7FEE7FEE7FEE704480549B1
:10174000054A064B70470000FB030008ED00000847
:10175000281B002028210020281D0020281D0020F3
:1017600031490143314A1160704770B500210023AF
:101770000F22C47804B32D4C246804F4E064C4F54B
:10178000E064210AC1F10403CA40447804FA03F179
:101790008478144021430901254C0678A15504782A
:1017A00004F01F050124AC4005786D11AD0005F172
:1017B000E025C5F8004109E0047804F01F05012484
:1017C000AC401C4D0678761145F8264070BD1A4A8B
:1017D0000A400243154B1B1F1A60704739B1134A68
:1017E000121D12680243114B1B1D1A6006E00F4ABE
:1017F000121D126882430D4B1B1D1A60704704288E
:1018000008D14FF0E021096941F004014FF0E022D6
:10181000116107E04FF0E021096921F004014FF068
:10182000E0221161704700000000FA050CED00E0B5
:1018300000E400E080E100E080FFFF1F01684FF658
:10184000FE72114001600021016041608160C16051
:101850008D49884208D18C490839496841F00F0107
:10186000894A083A51608AE087491431884208D190
:1018700085490839496841F0F001834A083A5160C6
:101880007DE081492831884208D17F49083949687B
:1018900041F470617C4A083A516070E07A493C3109
:1018A000884208D178490839496841F47041764A3C
:1018B000083A516063E074495031884208D1724956
:1018C0000839496841F470216F4A083A516056E07E
:1018D0006D496431884208D16B490839496841F43F
:1018E0007001694A083A516049E067497831884295
:1018F00008D165490839496841F07061624A083A7F
:1019000051603CE06149884206D1011F096841F0FD
:101910000F01021F116032E05C491431884208D186
:101920005A49091F096841F0F001584A121F116015
:1019300025E056492831884208D15449091F0968D1
:1019400041F47061514A121F116018E04F493C3157
:10195000884208D14D49091F096841F470414B4A3A
:10196000121F11600BE049495031884207D14749A5
:10197000091F096841F47021444A121F1160704721
:1019800010B50022026847F6F0739A430C6A8B6820
:1019900023430C6923434C6923438C692343CC695B
:1019A00023434C6A23438C6A23431A430260CB6867
:1019B00043600B6883604B68C36010BD0021016009
:1019C00041608160C160016141618161C161016209
:1019D00041628162704721B1026842F001020260F7
:1019E00004E002684FF6FE731A40026070471AB1B5
:1019F00003680B43036002E003688B430360704796
:101A0000416070470146486880B270470146002037
:101A1000002201F080531BB11C4B083B1A6802E006
:101A2000194B083B1A6802EA01030BB1012000E0E0
:101A30000020704700F0805119B11449091F086057
:101A400002E0114908394860704701460020002231
:101A500001F080531BB10D4B083B1A6802E00A4BA2
:101A6000083B1A6802EA01030BB1012000E00020E4
:101A7000704700F0805119B10449091F086002E065
:101A800001490839486070470800024008040240D4
:101A900010B50446CC48844208D10121042000F04E
:101AA00031FD0021042000F02DFD46E0C7488442AE
:101AB00008D10121082000F025FD0021082000F0B8
:101AC00021FD3AE0C248844208D10121102000F0F3
:101AD00019FD0021102000F015FD2EE0BD488442C4
:101AE00008D10121202000F00DFD0021202000F070
:101AF00009FD22E0B848844208D10121402000F0CD
:101B000001FD0021402000F0FDFC16E0B3488442B6
:101B100008D10121802000F0F5FC0021802000F098
:101B2000F1FC0AE0AE48844207D10121801500F0A3
:101B3000E9FC0021A01500F0E5FC10BD10B5012165
:101B4000084600F0DFFC0021012000F0DBFC10BDA6
:101B50002DE9F04102460025002600200023002444
:101B6000002791F803C00CF00F0591F803C00CF0AA
:101B7000100CBCF1000F03D091F802C04CEA05052F
:101B800091F800C0BCF1000F31D0146800202BE0A8
:101B90004FF0010C0CFA00F3B1F800C00CEA030698
:101BA0009E4220D183004FF00F0C0CFA03F7BC4388
:101BB00005FA03FC4CEA040491F803C0BCF1280FB9
:101BC00006D14FF0010C0CFA00FCC2F814C00AE078
:101BD00091F803C0BCF1480F05D14FF0010C0CFA8D
:101BE00000FCC2F810C0401C0828D1D31460B1F822
:101BF00000C0BCF1FF0F34DD546800202EE000F17E
:101C0000080C4FF0010808FA0CF3B1F800C00CEA18
:101C100003069E4221D183004FF00F0C0CFA03F70C
:101C2000BC4305FA03FC4CEA040491F803C0BCF180
:101C3000280F05D100F1080C08FA0CF8C2F814803E
:101C400091F803C0BCF1480F07D100F1080C4FF028
:101C5000010808FA0CF8C2F81080401C0828CED3FE
:101C60005460BDE8F0814FF6FF7101800221817060
:101C70000421C17070470246002093680B400BB1ED
:101C8000012000E0002070470146886880B270475C
:101C900002460020D3680B400BB1012000E0002079
:101CA00070470146C86880B2704701617047416162
:101CB00070470AB1016100E041617047C16070473F
:101CC0004FF480320A438261816182618269826954
:101CD000704702460020434B18684FF68073184047
:101CE00040EA021008433F4B186070473E49C86104
:101CF0007047F0B50A46002300240021002500F0BB
:101D00000046B6F1004F02D1364EF16901E0354E82
:101D10007168C0F3034583B200F44016B6F5401F66
:101D200008D121F070612F4E766826F070662D4F35
:101D30007E6012E000F48016B6F5801F06D10326FF
:101D400006FA05F4A14341F0706106E0460D360144
:101D500003FA06F6B14341F0706122B1460D360137
:101D600003FA06F6314300F00046B6F1004F02D107
:101D70001C4EF16101E01B4E7160F0BD30B50022D8
:101D80008B071C0F0F2303FA04F2164B08338C1039
:101D900053F824309343134C08348D1044F8253005
:101DA00023468C1053F824308C07240F00FA04F4D7
:101DB00023430C4C08348D1044F8253030BD0A49BB
:101DC000DC3108607047000000080140000C014051
:101DD000001001400014014000180140001C0140A7
:101DE00000200140000001400000204210B50446E0
:101DF000FB48844209D10121880300F083FB0021C4
:101E00004FF4804000F07EFB32E0F648844209D176
:101E10000121480400F083FB00214FF4003000F062
:101E20007EFB25E0F048844209D10121880400F0BE
:101E300076FB00214FF4802000F071FB18E0EB48A6
:101E4000844209D10121C80400F069FB00214FF44C
:101E5000002000F064FB0BE0E548844208D101213A
:101E6000080500F05CFB00214FF4801000F057FBE8
:101E700010BD2DE9F04786B005460E460024A24667
:101E800000BFA1460027B08900B100BF2F462C8AB1
:101E90004CF6FF700440F08804432C82AC894EF667
:101EA000F3100440B0883189084371890843044322
:101EB000AC81AC8A4FF6FF400440B0890443AC8249
:101EC00001A800F098FAC648874202D1DDF810A0B8
:101ED00001E0DDF80CA0A88900F4004040B10AEB55
:101EE000CA0000EB0A1031684900B0FBF1F807E0C6
:101EF0000AEBCA0000EB0A1031688900B0FBF1F868
:101F00006420B8FBF0F004012009642101FB108972
:101F1000A88900F4004040B1322000EBC900B0FBBA
:101F2000F1F000F00700044308E0322000EB091054
:101F30006421B0FBF1F000F00F0004432C8106B0E7
:101F4000BDE8F0874FF41651016000218180C18007
:101F500001810C21418100218181704710B5024629
:101F60000020108A4FF2FF0318400B884C8823434F
:101F70008C882343CC8823431843108210BD002152
:101F8000018041808180C180704721B1828942F403
:101F90000052828104E082894DF6FF731A408281EB
:101FA0007047F0B50346002400260025002040F6C7
:101FB0006A17B94200D100BF1846C1F3421401F0BC
:101FC0001F06012707FA06F5012C01D10C3004E0A9
:101FD000022C01D1103000E014301AB107682F43F1
:101FE000076002E00768AF430760F0BD1AB1838A5B
:101FF0000B43838202E0838A8B4383827047028A89
:102000004FF6F0731A400282028A0A430282704736
:1020100082894FF2FF731A40828182890A4382814A
:10202000704721B1828942F00202828104E08289F4
:102030004FF6FD731A4082817047028A4FF6DF73B4
:102040001A400282028A0A430282704721B1028A40
:1020500042F48042028204E0028A4BF6FF731A4087
:1020600002827047C1F30802828070470146888867
:10207000C0F308007047818941F0010181817047F8
:10208000028BD2B20283028B42EA012202837047A2
:10209000028B02F47F420283028B0A430283704761
:1020A00021B1828A42F02002828204E0828A4FF6C5
:1020B000DF731A408282704721B1828A42F0100297
:1020C000828204E0828A4FF6EF731A408282704760
:1020D00021B1828A42F00802828204E0828A4FF6AD
:1020E000F7731A408282704721B1828942F400421C
:1020F000828103E08289C2F30E028281704721B19E
:10210000828A42F40062828204E0828A4FF2FF7384
:102110001A4082827047828A4FF6FB731A4082828D
:10212000828A0A438282704721B1828A42F0020287
:10213000828204E0828A4FF6FD731A4082827047E1
:1021400002460020B1F5007F00D100BF13880B408C
:102150000BB1012000E00020704701F40072B2F5DD
:10216000007F00D100BFCA430280704770B50246AD
:10217000002400230025002040F66A16B14200D159
:1021800000BFC1F3421501F01F03012606FA03F355
:10219000012D02D19689334006E0022D02D1168A24
:1021A000334001E0968A33400C12012606FA04F40B
:1021B0001688344013B10CB1012000E0002070BD3E
:1021C00010B50022002340F66A14A14200D100BFDE
:1021D0000A1201249440A3B2DC43048010BD000025
:1021E000003801400044004000480040004C0040DE
:1021F00000500040DF48006840F00100DD49086001
:1022000008464068DC490840DA49486008460068EA
:10221000DA490840D74908600846006820F4802061
:1022200008600846406820F4FE0048604FF41F0034
:1022300088607047CF49096821F48031CD4A116028
:102240001146096821F480211160B0F5803F03D068
:10225000B0F5802F0ED106E0C649096841F48031FF
:10226000C44A116007E0C349096841F4A021C14A8A
:10227000116000E000BF00BF704710B501460022AA
:10228000002300204A11012A02D1BA4C236806E03B
:10229000022A02D1B74C236A01E0B64C636A01F00E
:1022A0001F02012494401C400CB1012000E00020DA
:1022B00010BD38B5002000900024002500BF31205B
:1022C000FFF7DBFF05460098401C00900098B0F532
:1022D000A06F01D0002DF2D03120FFF7CEFF08B162
:1022E000012400E00024204638BD01460020A14A18
:1022F000106820F0F80040EAC10010607047A04963
:1023000008607047024600209A4B586820F47C1001
:1023100042EA01031843974B586070479849086692
:10232000704701460020934A506820F0030008439C
:10233000506070478F48406800F00C0070470146BD
:1023400000208C4A506820F0F0000843506070472D
:1023500001460020874A506820F4E060084350603E
:10236000704701460020834A506820F4605040EADC
:10237000C1005060704729B17E4A527A02437D4BBA
:102380005A7204E07B4A527A82437A4B5A727047FF
:102390007B49D8310860704701460020754A506873
:1023A00020F440400843506070470021714A2032B9
:1023B0001170704A82F82010012802D004280AD136
:1023C00004E001216B4A2032117005E00521694AC1
:1023D0002032117000E000BF00BF704769490860FB
:1023E00070476449096A0143624A1162704765494E
:1023F00044390860704730B50021002200240023D2
:102400005C4D6D6805F00C0121B1042905D0082947
:1024100023D105E05C4D056022E05B4D05601FE0C7
:10242000544D6D6805F47012524D6D6805F480349A
:10243000022505EB92421CB9544D554305600BE053
:102440004C4D6D6805F400351DB1504D5543056088
:1024500002E04D4D5543056002E04B4D056000BF65
:1024600000BF444D6D6805F0F0010909484D6B5CF3
:102470000568DD4045603F4D6D6805F4E061090A7F
:10248000434D6B5C4568DD4085603A4D6D6805F4F1
:102490006051C90A3E4D6B5C4568DD40C560354DF5
:1024A0006D6805F44041890B3A4D6B5CC568B5FB1E
:1024B000F3F5056130BD29B12E4A526902432D4B17
:1024C0005A6104E02B4A526982432A4B5A61704791
:1024D00029B1284A92690243264B9A6104E0254AB1
:1024E00092698243234B9A61704729B1214AD2698C
:1024F0000243204BDA6104E01E4AD26982431D4B3D
:10250000DA61704729B11B4AD2680243194BDA607D
:1025100004E0184AD2688243164BDA60704729B14A
:10252000144A12690243134B1A6104E0114A1269FA
:102530008243104B1A617047124940390860704756
:102540000F49C86470470B49C87170470948406A11
:1025500040F0807007494862704701460020054AF4
:1025600092680A400AB1012000E00020704701494A
:1025700088727047001002400000FFF8FFFFF6FE6F
:10258000000042428004424200127A0000093D00ED
:102590006D0000207D00002010B50446BE48844236
:1025A00008D101218014FFF7ADFF0021A014FFF72F
:1025B000A9FF16E0B948844208D101210014FFF7B1
:1025C000AEFF00212014FFF7AAFF0AE0B4488442BE
:1025D00007D10121C013FFF7A2FF0021E013FFF78D
:1025E0009EFF10BD10B50022028802F441520B88F4
:1025F0004C8823438C882343CC8823430C89234372
:102600004C8923438C892343CC8923431A4302807A
:10261000838B4FF2FF74234083830B8A038210BDA8
:102620002DE9F04F85B005460C464FF00009022712
:102630004FF000084FF0010B0026B246A88B4FF276
:1026400040010840A88302202884B5F81C90A068A7
:10265000022801D100BF38E0A08810B94FF0010B6B
:1026600001E04FF0020B8D48854200D100E000BF31
:102670006846FFF7C0FEDDF800A0E088B0F5007FF7
:102680000AD14FEA1A2000EB80004000A168B0FB9D
:10269000F1F0401D86B20BE04FEA4B10BAFBF0F0B0
:1026A00000EB80004000A168B0FBF1F0401D86B255
:1026B0000A20B6FBF0F606F00108A6EB0800C0F30E
:1026C0004F074FF6FF7000EA0828022F01DBFF2FAB
:1026D00002DD02274FF00008E08840EA0800384396
:1026E0002884A088A1890843618808432188084379
:1026F00040F4006040EA0909A5F81C9005B0BDE867
:10270000F08F0021018041808180C1800181418161
:102710008181C181072101827047002101804180B0
:102720008180C1800221816000218181704721B1B7
:10273000028842F04002028004E002884FF6BF7334
:102740001A400280704721B1828B42F480628283FA
:1027500004E0828B4FF6FF331A408283704730B516
:10276000002400230C110125A540ABB21AB18588C5
:102770001D43858002E085889D43858030BD1AB168
:1027800083880B43838002E083888B438380704778
:10279000818170470146888970474FF6FF629142F8
:1027A00004D0028842F48072028004E002884FF66E
:1027B000FF631A400280704721B1828842F0040210
:1027C000828004E082884FF6FB731A408280704753
:1027D00002884FF2FF731A40028002880A43028087
:1027E0007047018841F480510180704721B102880F
:1027F00042F40052028004E002884DF6FF731A4052
:102800000280704702460020012901D0108B00E0B1
:10281000908A70470146088A7047B1F5804F04D10D
:10282000028842F48042028004E002884BF6FF7383
:102830001A40028070470246002013890B400BB1FA
:10284000012000E000207047CA4302817047F0B5C4
:102850000246002000240023002501F00F07012676
:10286000BE40B4B20B1101269E40B3B2968806EA70
:1028700003051689264016B10DB1012000E00020A5
:10288000F0BD10B5002201F00F040123A3409AB25D
:10289000D343038110BD00000030014000380040E8
:1028A000003C004010B50446FA48844208D101219A
:1028B0004015FFF727FE00216015FFF723FE17E004
:1028C000F548844208D101210015FFF71BFE0021C5
:1028D0002015FFF717FE0BE0F048844208D10121D4
:1028E000C803FFF70FFE00214FF40040FFF70AFE78
:1028F00010BD30B50246002000235068E84C20404F
:102900000D790C6844EA0524204350609068E54C3A
:102910002040D1E902542C434D7944EA4504204338
:102920009060D06A20F470000C7C641EE4B22343F3
:1029300040EA0350D06230BD002101600171417155
:102940008160C16001210174704721B1826842F049
:102950000102826003E0826822F001028260704717
:1029600021B1826842F48072826003E0826822F4BE
:1029700080728260704710B50023CBB21AB14468F0
:102980001C43446002E044689C43446010BD81687D
:1029900041F0080181607047014600208A6802F01A
:1029A00008020AB1012000E000207047816841F070
:1029B000040181607047014600208A6802F0040229
:1029C0000AB1012000E00020704721B1826842F482
:1029D000A002826003E0826822F4A0028260704755
:1029E000014600208A6802F480020AB1012000E05A
:1029F0000020704710B50A4600210023416821F4E9
:102A00006041531E41EA4331416010BD21B142682B
:102A100042F40062426003E0426822F400624260D5
:102A20007047F0B504460D4600200021092D11DD48
:102A3000E068A5F10A0606EB4607072606FA07F145
:102A40008843A5F10A0606EB460603FA06F1084399
:102A5000E0600CE0206905EB4507072606FA07F160
:102A6000884305EB450603FA06F108432061072A6F
:102A70000FDA606B561E06EB86071F2606FA07F173
:102A80008843561E06EB860605FA06F10843606386
:102A900022E00D2A0FDA206BD61F06EB86071F26D1
:102AA00006FA07F18843D61F06EB860605FA06F1FB
:102AB0000843206310E0E06AA2F10D0606EB8607EA
:102AC0001F2606FA07F18843A2F10D0606EB8606DB
:102AD00005FA06F10843E062F0BD21B1826842F4D4
:102AE0008012826003E0826822F480128260704764
:102AF0000146C86C80B2704766484C300068704729
:102B000021B1426842F48062426003E0426822F4EC
:102B100080624260704721B1426842F48052426054
:102B200003E0426822F48052426070470A46002166
:102B3000816821F4E04111438160704721B18268CE
:102B400042F40042826003E0826822F40042826024
:102B5000704721B1826842F40212826003E0826809
:102B600022F4021282607047014600208A6802F453
:102B700000120AB1012000E000207047F0B50446C1
:102B80001546002000220026092911DDE068A1F188
:102B90000A0707EB470C072707FA0CF29043A1F14D
:102BA0000A0707EB470703FA07F21043E0600CE05F
:102BB000206901EB410C072707FA0CF2904301EB67
:102BC000410703FA07F210432061A06BC0F30156DE
:102BD000EF1C06F1010CA7EB0C0707EB870C1F2776
:102BE00007FA0CF29043EF1C06F1010CA7EB0C075F
:102BF00007EB870701FA07F21043A063F0BD10B599
:102C00000A4600210023816B21F44011531E41EA42
:102C10000351816310BD08B5002300930090009B11
:102C20000B440093009B1A6008BD08B502460020C3
:102C30000090009201F12800009B18440090009839
:102C4000006880B208BD0A4600214168164B194051
:102C50001143416070474162826270470A46002119
:102C6000416821F01F0111434160704740B109499B
:102C70000831096841F40001064A0832116007E092
:102C800004490831096821F40001024A0832116040
:102C9000704700000024014000280140003C014032
:102CA000FFFEF0FFFDF7F1FFFFFD3FFF02460020B2
:102CB00013680B400BB1012000E000207047CA43AD
:102CC0000260704770B502460020002300240B12FA
:102CD0005568CEB205EA060415681D4015B10CB161
:102CE000012000E0002070BD00220A12D3430360DF
:102CF000704770471CB50C46064B7B4469460090F4
:102D0000204600F08EFA04460020694600F09CFA46
:102D100020461CBD4B0500000FB4044910B503AAA2
:102D2000029800F0ADFA10BC5DF814FB40000020E2
:102D30000FB41CB5084B06AA7B4469460090059861
:102D400000F06FFA04460020694600F07DFA204644
:102D50001CBC5DF814FB00000D05000070B50446B6
:102D600085690068C10601D5302600E02026C0072D
:102D700007D070BDD4E9012130469047206A401C3D
:102D800020626D1EF6D570BD70B504468569007869
:102D9000C00707D170BDD4E9012120209047206AE7
:102DA000401C20626D1EF6D570BD70B50C46054600
:102DB000012A05D02878800600D5EA69002302E0C0
:102DC000012305E05B1C934202D2E05C0028F9D1AC
:102DD000A869E618C01AA861286A1844286228461B
:102DE000FFF7BCFF04E0D5E9012114F8010B90477F
:102DF000B442F8D32846FFF7C7FF70BD2DE9F04174
:102E00000646002410687529314616A510D000F03A
:102E100083F9002802DA404213A507E031688A07E7
:102E200001D512A502E0490704D511A5012401E04E
:102E300000F07BF900210A2206F1240709E0B0FB2B
:102E4000F2FCB0FBF2F302FB1C0030307854184661
:102E5000491C0028F3D123462A463046BDE8F041FC
:102E600000F06CB9000000002D0000002B000000F5
:102E7000200000002DE9F05F894604464FF0000A6B
:102E8000DFF874B1FB44C0F820A02046E168884711
:102E9000002874D0252806D0D4E901219047206A63
:102EA000401C2062F1E700265F462046E168884723
:102EB0002028054607DB312D05D2781910F8200CA3
:102EC00008B10643F1E7B00701D526F00406C4F8BF
:102ED0001CA00027C4F818A02A2D09D0284601F00C
:102EE00088FA38B304EB8708303DC8F8185019E069
:102EF00059F8041B204604EB87029161E16888477A
:102F0000012F054618D1E069002820DA26F02006B6
:102F10001DE0D8F8180000EB800005EB40003038C9
:102F2000C8F818002046E1688847054601F061FAB4
:102F30000028EED1012F0AD02E2D08D12046E168BD
:102F400088477F1C0546022F46F02006C4DBA06997
:102F5000002803DA404246F00106A061F00701D0E4
:102F600026F010066C2D0BD0682D09D04C2D39D0D1
:102F70006A2D35D0742D35D07A2D33D016E038E057
:102F8000E1682F4620468847B842054609D16C2F94
:102F900026D04FF48060E168064320468847054606
:102FA00004E06C2F1AD04FF4807006430DB3A5F1E6
:102FB0004100192802D8203546F400664A462946C1
:102FC000204626604E46FDF7CBF880B101280BD095
:102FD000F61D26F0070000F1080956E74020E4E757
:102FE0008020D8E70020D6E706F104094DE72846FF
:102FF00052E7206ABDE8F09F5C22000030B505462C
:103000000B462A4613F8014B12F8010B08B1A042F7
:10301000F8D01CB1002802D06D1CF1E7284630BD65
:1030200010B5431C02E010F8011B71B18107FAD101
:103030004FF0013202C88C1A8C4314EAC211F9D045
:10304000C01A0A0603D0C01E10BDC01A10BD0A0463
:1030500001D0801E10BD0902FCD0401E10BD10B56D
:10306000203AC0F00B80B1E81850203AA0E8185080
:10307000B1E81850A0E81850BFF4F5AF5FEA027C41
:1030800024BFB1E81850A0E8185044BF18C918C0B0
:10309000BDE810405FEA827C24BF51F8043B40F851
:1030A000043B08BF7047D20728BF31F8023B48BF36
:1030B00011F8012B28BF20F8023B48BF00F8012B74
:1030C00070474FF0000200B51346944696462039EB
:1030D00022BFA0E80C50A0E80C50B1F12001BFF4D1
:1030E000F7AF090728BFA0E80C5048BF0CC05DF837
:1030F00004EB890028BF40F8042B08BF704748BF85
:1031000020F8022B11F0804F18BF00F8012B7047F8
:10311000704770477047704709684A0501D540B24B
:103120007047C905FCD500B2704709684A0501D54A
:10313000C0B27047C905FCD580B270472DE9F04791
:103140000D4699469246044600F124080168880617
:1031500004D5E06921F01001216000E00120A842BF
:1031600001DD471B00E00027A1697A1902EB090085
:10317000081AA0612078C00602D42046FFF7EEFDB1
:10318000002608E0D4E901211AF806009047206AD9
:10319000401C761C20624E45F4DB2078C0060AD520
:1031A0002046FFF7DBFD06E0D4E9012130209047FF
:1031B000206A401C2062381EA7F10107F4DC07E0FA
:1031C000D4E9012118F805009047206A401C2062CC
:1031D000281EA5F10105F3DC2046FFF7D5FD207878
:1031E000000602D50220BDE8F0870120FBE7116848
:1031F0000268006A530501D508700AE0D30501D5BD
:10320000088006E0130603D5C217C1E9000200E0FA
:10321000086001207047000001694A1C02610878BB
:10322000704700B58FB0CDE9013100210591054906
:103230007944CDE9031011466846FFF71BFE0FB035
:1032400000BD0000E5FFFFFF0A6802F8010B0A60FD
:10325000704710B5436913B1AFF3008001E0FFF789
:10326000A4FD012010BD127800F124010A70002293
:103270004A700122EDE711684FF0FF32E9E70000E4
:10328000074B70B50D467B44FFF7CBFF044628463D
:1032900000F08EFB10B14FF0FF3070BD204670BDC6
:1032A0005DD9FFFF2DE9FF5F15468A460446DFF82A
:1032B000AC80F8440027D8E900103E46CDE9001064
:1032C00010E03AF816106A4602A800F075FB411C9F
:1032D00007D02178890603D5E269391891420DD8C3
:1032E0000744761C2078800602D5E069B84205DDE7
:1032F000AE42E6DB3AF816000028E2D1A069C01B16
:10330000A0612046FFF72AFDD8E90010CDE90010A2
:10331000002017E03AF818106A4602A800F04CFBAB
:10332000B0F1FF3F81460BD000250DF1080B05E001
:10333000D4E901211BF8050090476D1C4D45F7D3DA
:1033400008F10100B0428046E4DB206A3844206284
:103350002046FFF719FDBDE8FF9F0000421E000058
:103360002DE9F0418046D21D22F007020025D2E966
:103370000002F52915A614D0011E72F1000106DA2B
:103380000023D0EB030063EB020211A608E0D8F89B
:1033900000108B0701D50FA602E0490701D50EA644
:1033A00001251146002408F1240704E000F098F8F4
:1033B00030323A55641C50EA0102F7D12B463246AE
:1033C00021464046BDE8F041FFF7B8BE00000000CE
:1033D0002D0000002B0000002000000030B4002170
:1033E00000F1240408E002F00705D208303542EA73
:1033F0004372DB086554491C52EA0305F3D10468A3
:10340000002310A2250708D504F020040C4304D0A3
:10341000C46901230CA2641EC46130BCFFF78EBED8
:1034200010B5044621461068FFF77FFE024620468D
:10343000BDE810400023D1E7D21D22F00701D1E9F9
:103440000023CBE70000000030000000F0B40D4680
:103450000188090502D5214C7C4402E01F4C7C44C4
:103460000E34002100F1240608E002F00F071209D3
:10347000E75D42EA03721B097754491C52EA0307CD
:10348000F3D102780023120704D5702D06D009B1BC
:10349000022311342246F0BCFFF750BE0123103442
:1034A000F8E770B504460D4621461068FFF73DFE6B
:1034B000024629462046BDE870400023C6E7D21DDB
:1034C00022F00703D3E90023C0E70368126843F042
:1034D000200303600823C3610023B7E7A41C000096
:1034E00030B5B0F10A024FEA900E71F100034EEAD6
:1034F000817EB0EB0E0061EB91014FEA101E4EEAA7
:10350000017E10EB0E0041EB11114FEA102E4EEA36
:10351000016E10EB0E0041EB11214FEA104E4EEA06
:10352000014E10EB0E0041EB1141401841F100013A
:103530004FEAD00040EA41704FEAD10110EB80051C
:103540004FEA810444EA907444EB01046D1944EBA2
:103550000404521BA3414FF0000348BF0A3200D5B8
:1035600030BD401C41F1000130BD70472DE9FF4FD7
:103570000C461E464FF0FF378BB0D2E90001DDF854
:1035800060800A908A46C1F30A5505B93D4600217C
:1035900008464FF00000BAF1000F00F4400005DAD1
:1035A00000EB80004FF4400101EA50004FEA9059CF
:1035B000B9F1010F00DDB9460A9850EA4A000ED071
:1035C00044F61050A5F2FF3545432F14B8F1000F13
:1035D0001ED07542291E1EDDC9F100021CE0B8F1A3
:1035E000010F4FF0000001D0302103E0F24305E06D
:1035F0002154401CB042FBDB304600220021215404
:103600000B99C1F80880C1E900200FB0BDE8F08F28
:10361000BD1B6D1CDEE74A4600DA694206A800F0D1
:103620005DFA06AB93E8070003AB83E8070050465A
:103630000A9900F00FFB8DE80700A0F500501F3835
:1036400000900398002D09DD42F21F014A4608440C
:1036500003A90390684600F06EFD08E0A0F5005055
:103660004A461F3803A90390684600F078FD8DE8AC
:1036700007000004000C03D04FF0FF30410800E0C9
:103680001046B8F1000F03D00022009215461EE04C
:10369000751E05D4FFF724FF303262556D1EF9D533
:1036A000B3460122084302D000227F1C04E02078A8
:1036B000302801D100227F1E002A099786D01DE004
:1036C000112D07DAFFF70CFF303262556D1C50EAFE
:1036D0000102F5D1084302D00098C8B10EE00021E4
:1036E000681E05E0235C625C63542254401E491C42
:1036F0008142F7DBAB46A81B401E0990002004F86E
:103700000B000B98099AC0F80880C0E9002B7CE7F1
:1037100011264FF0000859E72DE9F04F884604467E
:10372000D21D22F0070191B0D1E90001CDE90A01D3
:1037300000F04BFE02460B98C00F01D02D2007E091
:103740002068810701D52B2002E0202101EAC0007A
:10375000032A099001D0072A05DB0346414620468B
:1037600000F07CF90BE12078800601D5E06900E0EB
:103770000620B8F1650F814606D0B8F1660F18D063
:10378000B8F1670F70D131E00020B9F1110F00904E
:1037900001DB112301E009F101030AAA01A90CA828
:1037A000FFF7E4FEDDE90C70002609F10105834610
:1037B00047E001204B4600904FF000470AAA01A9BC
:1037C0000CA8FFF7D3FEDDE90DB00C995D4600268D
:1037D00010B909F101000D18B9EB050003D4C0F1CF
:1037E000FF3609F10105A5EB09002BE0B9F1010F46
:1037F00001DA4FF001090020B9F1110F009048469D
:1038000001DD112300E003460AAA01A90CA8FFF775
:10381000ADFEDDE90C704D4600268346207800079A
:103820000AD4AB4500DA5D4601A8012D04DD41193B
:1038300011F8011C302907D04F4502DA17F1040FA7
:1038400004DA012082460FE06D1EEEE7002F02DC55
:10385000ED1B3E4403E0781CA84200DD7D1CB81B34
:1038600000F1010A4FF000472078000703D4AA4571
:1038700001DB4FF0FF3A0021B7F1004F0DF1430893
:103880008DF8431024D002202B23002F01DA7F4231
:103890002D230A21021EA0F1010000DC5FB197FB7D
:1038A000F1FC97FBF1F201FB1C7C17460CF1300C8C
:1038B00008F801CDEEE7A8F10100037021880905A1
:1038C00001D5452100E06521A0F1010800F8011CA7
:1038D00009980FA9A1EB0807FF1D00B101204119AC
:1038E00001EBEA70A1693844081A401EA0612078F3
:1038F000C00602D42046FFF731FA099828B1D4E96E
:1039000001219047206A401C20622078C00622D501
:103910002046FFF723FA1EE0002E04DBB34502DD4C
:1039200001A8805D00E03020D4E901219047206AA1
:10393000401C2062761CAAF101005FEA000A0AD14D
:1039400000F088F8C0680168405CD4E90121904724
:10395000206A401C2062281EA5F10105DCDC07E07E
:10396000D4E9012118F8010B9047206A401C20621D
:10397000381EA7F10107F3DC2046FFF705FA032004
:1039800011B043E610B5436913B1AFF3008001E015
:10399000FFF788FC012010BD128800F12401828409
:1039A0000022C2840122EDE711684FF0FF32E9E7FF
:1039B000007B00F08000704770B516460C46054647
:1039C00000F040F8036893F80101012806D0FF2CAD
:1039D0000FD8185D68B101202C7070BDD3F80701B5
:1039E0003246214603F2071303442846BDE87040DF
:1039F00018474FF0FF3070BD754600F0E7F8AE464F
:103A000005006946534620F00700854618B020B5EA
:103A1000FDF794FEBDE820404FF000064FF0000790
:103A20004FF000084FF0000B21F00701AC46ACE866
:103A3000C009ACE8C009ACE8C009ACE8C0098D46D3
:103A40007047000010B500F005F8001D10BD00BF64
:103A5000DD09000000487047E41A00202DE9F0411C
:103A60001F46044603260168072A01F4006004DBB0
:103A700008B116A505E016A503E008B115A500E0FC
:103A800015A521F010002060A069C01EA0610FB133
:103A9000401EA0612046FFF761F94FB1D4E9012132
:103AA00038469047206A401C2062C01C206206E015
:103AB000206AFAE7D4E9012115F8010B9047761E38
:103AC000F8D22046FFF760F9BDE8F0814E414E0084
:103AD0006E616E00494E4600696E66002DE9F04742
:103AE000814616468AB0334878440DC88DE80D00EB
:103AF00030487844801C03AC0DC884E80D0041F6C2
:103B00009B300844372190FBF1F290FBF1F5A5F1D1
:103B1000800501FB12041B3C02D56442012000E039
:103B20000020DFF890A080460027FA44AAF1BE0AE0
:103B30000DE0E00709D03246684607EB47010AEB83
:103B4000810100F00CFB8DE8070064107F1C002C45
:103B5000EFD1184F7F44AC3F18E0E80714D007EBD3
:103B600004100DF1180A90E80E008AE80E00C068F3
:103B7000F04201D198190890324606A903A800F036
:103B8000EEFA03AB83E807006D10641C002DE4D14E
:103B900032466946B8F1000F03A802D000F0CBFA14
:103BA00001E000F0DCFAC9E90001C9F808200AB018
:103BB000BDE8F087B816000010B50446AFF30080EA
:103BC0002046BDE81040FCF72EBB000000487047BF
:103BD000C41A00204FF0013C50F8042B51F8043B6C
:103BE0009A4221D1A2EB0C03934313EACC1317D1D1
:103BF00050F8042B51F8043B9A4215D1A2EB0C0368
:103C0000934313EACC130BD150F8042B51F8043B27
:103C10009A4209D1A2EB0C03934313EACC13DBD0F5
:103C20004FF00000704700BFD01A01BAB1FA81F11D
:103C300001F0180122FA01F0CB40C1F12001DBB202
:103C4000C0B2C01A2CFA01F3D11A914311EAC31180
:103C5000E6D170475FEA400C08BF91F0000F4FEAD1
:103C60008C234FEAC12243EA51514FEA1C5018BF3E
:103C700000F5F0404FEA300018BF41F000415FEA24
:103C80006C5C00F02980BCF1FF3F08BF40F0804031
:103C90007047130C06BF12044FF0100C4FF0000CCD
:103CA000130E04BF12020CF1080C130F04BF120113
:103CB0000CF1040C930F04BF92000CF1020CD30F13
:103CC00004BF52000CF1010C11464FF00002A0F1AC
:103CD0001F00A0EB0C00704711F0004F08BF7047A9
:103CE00031F000413FF4D5AF0B0C06BF09044FF093
:103CF000100C4FF0000C0B0E04BF09020CF1080C65
:103D00000B0F04BF09010CF1040C8B0F04BF8900D9
:103D10000CF1020CCB0F04BF49000CF1010CCCF1EB
:103D20002003A0EB0C0022FA03F302FA0CF241EAA2
:103D3000030100F10100704720F07F4C80EA03008E
:103D400023F07F47ACEB070303F57C5300F0004002
:103D500003F1FF032DE980494FEA154B09B44FEAFF
:103D6000144325EA0B4E24EA03480FF2042606EB1F
:103D7000132749083E785FEA320203FB0667C7F55E
:103D8000000707FB06F64FEA54374FEAD64606F11E
:103D9000020607FB066CCCF1005C4FEA1C472CEADC
:103DA000074C07FB06F40CFB06F504EB15464FEA3F
:103DB000961634BF00204FF000404FEAD13706FB83
:103DC00007FC4FEA1C4C0CFB0BF7D21B03FB0CF758
:103DD00061EB07010CFB0EF7B0EB074072EB1742EB
:103DE0000CFB08F734BFA2EB0742B2EB074261EBD2
:103DF00017414FEA0C444FEA910706FB07FC4FEAD4
:103E00001C4C0CFB0BF7B0EBC74072EB573203FBBB
:103E10000CF734BFA2EBC742B2EBC74261EB57319C
:103E20000CFB0EF7B0EBC70072EB57720CFB08F7F8
:103E300034BFA2EBC702B2EBC70261EB5771039F1D
:103E40004FEA816141EA921104EBCC044FEAD13789
:103E50004FEA826206FB07FC42EA90124FEA80605A
:103E60004FEA1C4C0CFB0BF7D21B03FB0CF761EB6E
:103E700007010CFB0EF7B0EB074072EB17420CFB8F
:103E800008F734BFA2EB0742B2EB074261EB1741E0
:103E90004FEA8C554FEA910704EB9C2406FB07FC84
:103EA0004FEA1C4C0CFB0BF7B0EBC74072EB5732E0
:103EB00003FB0CF734BFA2EBC742B2EBC74261EB86
:103EC00057310CFB0EF7B0EBC70072EB57720CFBCF
:103ED00008F734BFA2EBC702B2EBC70261EB577120
:103EE00015EB4C254FEA816141EA92114FEA82625B
:103EF0004FEAD13742EA901206FB07FC44F1000476
:103F00004FEA80604FEA1C4C0CFB0BF7D21B03FB03
:103F10000CF761EB07010CFB0EF7B0EB074072EBFF
:103F200017420CFB08F734BFA2EB0742B2EB074283
:103F300061EB174115EB1C154FEA813141EA9241C3
:103F40004FEA823242EA90424FEA80304FEA0C76E2
:103F500044F1000448EA03434EEA0B484FF0000ED8
:103F6000B2EB080C71EB030724BF624639464EEBF7
:103F70000E0E4FF0000B0018524149414BEB0B0B5A
:103F8000B2EB080C71EB03077BF1000B24BF624618
:103F900039464EEB0E0E4FF0000B001852414941CE
:103FA0004BEB0B0BB2EB080C71EB03077BF1000B37
:103FB00024BF624639464EEB0E0E51EA020718BF87
:103FC00046F0010616EB0E7655F1000254F10001A1
:103FD00003D5BDE88901BDE80088BDE88901BDE8D9
:103FE0000048B619524141EB0101A3F101037047AA
:103FF00080807F7E7D7C7B7A797877767675747326
:10400000727171706F6E6E6D6C6C6B6A6A696868E4
:10401000676666656464636362616160605F5F5E7A
:104020005E5D5D5C5C5B5B5A5A59595858575756F0
:104030005655555554545353525252515150505055
:104040004F4F4F4E4E4D4D4D4C4C4C4B4B4B4A4AA7
:104050004A494949484848474747474646464545EB
:104060004544444444434343434242424241414124
:10407000002B26D4770021D01CB54FEA370703B4B4
:104080004FF010004FF010014FF000000FBCBDE8E2
:1040900010400BF1010BBBF1010F08BF5FEA1707DE
:1040A00022BF12F1010211F101014FF0004143F171
:1040B000000300F0004043EA00007047F9D35708BE
:1040C000DAE746EA064613F1400F4FEA16461FDDCF
:1040D00013F1200FDFBF16430A46002120335B4255
:1040E000C8D0C3F1200746EA064602FA07F74FEAAE
:1040F000164646EA0706C3F1200722FA03F201FA40
:1041000007F721FA03F14FF0000342EA0702B1E793
:1041100046EA020646EA06464FEA164646EA01061F
:10412000BCBF46EA0646360C4FF000034FF00002D3
:104130004FF000019EE72DE9C048934630B491E866
:10414000380007C831EA400C48BF34EA430C03D5B5
:10415000FFF7F2FDFFF78CFFF0BCBDE800882DE90A
:10416000C048934630B491E8380007C810F0804F3B
:1041700008BF13F0804F03D100F005F8FFF778FF78
:10418000F0BCBDE8008820F07F4780EA030023F000
:104190007F4C07EB0C03A3F57C5300F00040A3F128
:1041A000FE0392F0000F00F0B38095F0000F00F0D6
:1041B00077802DE901494FEA11404FEA144621EA80
:1041C000004800FB06FC24EA064708FB06F607FB4E
:1041D00008F800FB07F718EB06484CEB164C4FEAC3
:1041E000124B18EB07484FEA15464CEB174022EAF2
:1041F0000B4E0BFB06FC25EA06470EFB06F607FBFB
:104200000EFE0BFB07F71EEB064E4CEB164C4FF069
:1042100000061EEB074E4CEB174B18EB0B0840F15A
:10422000000018EB0E0B58EB000840F100008F1A4D
:104230004FF000013CBFC943661B14BFB5EB040C33
:1042400000213CBFC943F61B4FEA17444EEA8E0ECD
:1042500027EA04454FEA1C4704FB07622CEA074C97
:1042600005FB07F70CFB05F604FB0CFC16EB0746F9
:1042700042EB174216EB0C4642EB1C421BEB0606C8
:1042800058EB0202414146EA9E0601D5BDE801898C
:10429000B619524141EB0101A3F10103BDE80189C7
:1042A0004FEA14454FEA114724EA054621EA074C34
:1042B00005FB07F406FB07F70CFB06F105FB0CFCFE
:1042C00011EB074144EB17444FEA124711EB0C4145
:1042D00044EB1C4422EA074C05FB07F206FB07F7F8
:1042E0000CFB06F605FB0CFC16EB074642EB1742EF
:1042F00016EB0C4642EB1C456A1854F1000148BF0E
:104300007047B619524141EB0101A3F10103704717
:1043100095F0000F37D04FEA11424FEA144721EAD7
:10432000024624EA074C02FB07F106FB07F70CFBE9
:1043300006F402FB0CFC14EB074441EB17414FEA77
:10434000154714EB0C4441EB1C4125EA074C02FBDA
:1043500007F506FB07F70CFB06F602FB0CFC16EB59
:10436000074645EB174516EB0C4645EB1C42121968
:1043700051F1000148BF7047B619524141EB0101AC
:10438000A3F1010370474FEA14454FEA114724EAAD
:10439000054621EA074C05FB07F106FB07F70CFB76
:1043A00006F24FF0000605FB0CFC12EB074241EB56
:1043B000174112EB0C4251EB1C4148BF7047921859
:1043C00041EB0101A3F101037047490050EAC1200C
:1043D00018BF04204A0D18BF40F0010040F2FF72E0
:1043E000B2EB515F08BF40F00200012808BF052072
:1043F000704730380A2801D20120704700207047EA
:1044000010B500290AD00878002807D0054878445C
:10441000FFF7E0FB002801D0002010BD02487844DF
:1044200010BD0000CE0D0000C60D000010B5002923
:104430000AD00878002807D005487844FFF7CAFB5F
:10444000002801D0002010BD0248784410BD0000B3
:10445000BE0D0000B60D000021F00042A2F1605236
:10446000B2F5801F01F0004328BFD2F17F6C0BD959
:104470005FEA001C43EAC20242EB507018BF70476B
:1044800028BF20F001007047B2F5801FBCBF18465E
:1044900070474FEA410C1CF5001F02D2084600F09D
:1044A000E9BD70B500F00CFB00000089FFF7F6BF16
:1044B0004FF00040A0F580007047000010B591EA71
:1044C000030F48BF83F0004300F16283841A71EB4D
:1044D000030C05D2121943EB0C03001B61EB0C011A
:1044E000DFF824E14FEA1154A4EB135C1EEA430FFA
:1044F00018BF9EEA445F73D023EA0E03DCF1200E5E
:1045000021EA045143F4801332D322FA0CFE10EB5B
:104510000E0023FA0CFE41EB0E01CCF1200E03FA43
:104520000EFE10EB0E0051F10001B1F5801FCCF131
:10453000200E32D201EB045112FA0EF2BDE8104007
:1045400058BF7047401C38BF5FEA420218BF70472F
:10455000002814BF20F0010041F100014FEA41039F
:1045600013F5001F38BF7047A1F1C04100F0F6BA43
:10457000012A43EB0302ACF1200CDCF11F0E32BF29
:104580004FF0000E23FA0CF310EB030041EB045143
:10459000B4EB115FD0D0A1EB045101F580114908B3
:1045A0005FEA300001EB04510ED350F1000038BF38
:1045B00012FA0EFE08D1BDE81040C9E7401C38BF12
:1045C0005FEA4202CAD1C3E7BDE810404FEA4103A7
:1045D00013F5001F38BF7047A1F1C04100F0BEBA0B
:1045E0009EEA445F08D011EA5E0FBDE8104004BFA8
:1045F00001F0004100207047BDE8104070B500F0A8
:104600005FFA00BF64FBBE3E0000E0FF2DE9C04141
:1046100030B4DFF8A0C23CEA111418BF3CEA13140E
:1046200000F0EC8081EA03051CEA111444EAD57419
:1046300018BF1CEA131500F0C780A4EB05044FF067
:10464000004545EAC12145EAC32341EA505143EA06
:10465000525304F17F74994204F500344FEAC020AC
:104660004FEAC22208BF904200F09C804FEA1365D7
:104670000FF24016765D4FEA134506FB05F7C7F1CA
:10468000807706FB07F74FEAD737A7FB0368764228
:10469000C8F58038A7FB06CE38BFA8F1010807FB94
:1046A00008E64FF0000EA6FB028CE6FB03CEDCF121
:1046B000000CCEF1004E38BFAEF1010EA6FB0C5837
:1046C0004FF000074FF00005E6FB0E87A1FB08C680
:1046D000A0FB07CE16EB0E0645F10005E1FB0765D2
:1046E00015F1E04E7EBFA4F580345FEA46066D41C9
:1046F00016F1800745F100054FEA17274FEA0666D5
:1047000047EA0567A6F1DE46B6F1805F4FEA152558
:104710001FD9384624F0010C05EBC471BCF1FE6FC3
:1047200001EB0C1102D8F0BCBDE8008124425CBF53
:1047300001F5801E9EEAC47F02D4F0BCBDE8008172
:10474000244238D4F0BCA1F1C041BDE8004100F0E2
:1047500005BA4FEAD22242EA43524FEAD323A7FBDB
:1047600002864FEAD02040EA415007FB03661EEA6A
:104770000E0F4FEAD12105FB026658BFA6EB00568B
:10478000B6EB00564FEA520E4EEAC37E18EB0E0E01
:1047900056EB530EBDD518EB02085E417F1C55F158
:1047A0000005B6E74FF480154FF000074FF0000604
:1047B0004FF00008ADE7F0BC4FF0000001F1C04140
:1047C00001F00041BDE8008111EA0C1F0CEA13154D
:1047D00000D00CE013EA0C1F00F025804FF0000021
:1047E000F0BC81EA030101F00041BDE80081F0BCAA
:1047F000BDE8004181EA030100F0B0B9F0BCBDE8BA
:10480000004170B500F05CF9097EFC3E00F007B88D
:1048100081EA03014FF0000001F00041704781EA96
:10482000030100F09BB9F0BCBDE800414FF000006F
:1048300021497047FFFDFBF9F7F5F4F2F0EEEDEBDF
:10484000E9E8E6E4E3E1E0DEDDDBDAD8D7D5D4D38E
:10485000D1D0CFCDCCCBCAC8C7C6C5C4C2C1C0BFDA
:10486000BEBDBCBBBAB9B8B7B6B5B4B3B2B1B0AFE0
:10487000AEADACABAAA9A8A8A7A6A5A4A3A3A2A1C4
:10488000A09F9F9E9D9C9C9B9A999998979796957F
:1048900095949393929191908F8F8E8E8D8C8C8B1B
:1048A0008B8A8989888887878685858484838382A3
:1048B000828181800000FF070000F87F4FEA1153DA
:1048C000A3F58063D3F11E03A8BFD3F1200C08DB4E
:1048D0004FF0004242EAC12252EA505232FA03F04B
:1048E000704709420BD4102BC4BF0020704703F55A
:1048F000787CBCF1FF3F05D04FF0FF3070474FF0A0
:104900000000704770B500F0DBF800BF49922480CA
:1049100000207047F0E710F0004248BF4042B0FA74
:1049200080F310FA03F10AD0C3F11D0303F580638D
:104930004FEA415002EB035202EBD12170474FF096
:1049400000007047B0FA80F310FA03F10AD0C3F107
:104950001D0303F580634FEA41504FEA035202EB17
:10496000D12170474FF0000070470000DFF848C1C8
:1049700070B51CEA111E1EBF1CEA13159EEA0C0F2F
:1049800095EA0C0F00F06F8081EA030423EA4C13D0
:104990004EEAD47E21EA4C1141F4801143F4801395
:1049A000AE44A1FB024CA0FB0365AEF17F7E36193D
:1049B00055EB0C05A1FB034C4CF10003A0FB021CC2
:1049C00016EB0C06654153F10003094218BF46F08F
:1049D000010613F4007F0BD14FEA03314FEA053093
:1049E000340341EA155140EA16506FF003020AE021
:1049F0004FEAC3214FEAC520F40241EA555140EA8B
:104A000056506FF0020202EB2E4201EB025585EA8E
:104A1000CE710AD05FEA440C18BF24F0004450F174
:104A2000000041F1000120EAD47040F2FE7C6245B2
:104A300000D270BDA84214BF4FF080444FF04044F4
:104A4000002E08BF0024BEF1806FA8BFA1F1C041B5
:104A5000BDE8704080F282804FF0000001F1C0415B
:104A600001F0004170479EEA0C0F0CEA131518BFC5
:104A700095EA0C0F06D04FF0000081EA030E0EF00D
:104A8000004170BD00F01CF88900013E00F007B83D
:104A900000F009B84FEA430C5FEA5C5C08D081EA99
:104AA000030100F05BB84FEA410C5FEA5C5CF6D1B1
:104AB0004FF00000014970470000FF070000F87F39
:104AC0000EF1020E2EF0030E5EF8046B364205D492
:104AD000012A43EB030515F5001F12D8012841EB0D
:104AE000010C1CF5001F0CD80ED14FEAD17C15F536
:104AF000001F0CEB4C0C0CF1020C08BF4CEBD37CF0
:104B000004E04FF0080C01E04FEAD37C0CEB4C05BD
:104B100026FA05F606F00706B6F1040C06D20EEBEF
:104B2000860CBDE870404CF0010C6047DFE80CF0EB
:104B3000090B02024FF000414FF00000A1F50021E7
:104B400070BD19461046012851EB010418BFD4F579
:104B5000001484BF002001F0004170BD0808A0F5DA
:104B600000114FEA3101704791EA030F10B581F04F
:104B700000413FF5ABAC83F0004300F009B8000002
:104B800010B591EA030F48BF83F000433FF59EAC98
:104B9000841A71EB030C07D212198CF0004C43EB12
:104BA0000C03001B61EB0C01DFF8A4E14FEA115488
:104BB000A4EB135C1EEA430F18BF9EEA445F00F0AB
:104BC000B08023EA6E03524221EA0451C3EB6E0324
:104BD00038BF5B1EDCF1200E25D322FA0CFE10EB51
:104BE0000E0043FA0CFE41EB0E01CCF1200E03FA4D
:104BF0000EFE10EB0E0051F10001CCF1200E29D475
:104C000012FA0EF201EB0451BDE8104058BF704794
:104C1000401C1CBFB2F1004F704700280CBF491C5C
:104C200020F00100704712EB020E43EB030218BFA5
:104C30004FF0010E4EEA4202ACF1200CDCF11E0EE8
:104C400054D943FA0CFE10EB0E0051F1FF31CCF1B8
:104C50001E0ED5D50EF1010E12FA0EFE404141EBAB
:104C6000010101EB445C5FEA5C5C10D910EBDE7083
:104C700001EB045138BFBEF1004FBDE8104018BF32
:104C8000704700280CBF491C20F00100704730D24B
:104C90004FEAD42C11F5001124F400641BD0B1FAB2
:104CA00081F20B3AA41AA41ED2F12003914030FAEB
:104CB00003F31943904001EBCC71002C01EB04513C
:104CC000BDE81040A8BF704701F1C0414FF000009F
:104CD00001F000417047B0FA80F310FA03F100D1FF
:104CE00010BDE41A173C4805C90AE4E701EB04517A
:104CF00010BD491001EB0451BDE810404FEA3000EF
:104D000002E04FF0000170474A0008BF0042F8D0AF
:104D1000B2F5001F28BF704701F000414FF00000BE
:104D200070479EEA445F07D011EA5E0FBDE810406D
:104D300004BF002100207047BDE8104070B5FFF7A8
:104D4000BFFE00BF40DFF63E83F0004110467047D3
:104D50000000E0FF43004FEAD30C4FEA3C0C434015
:104D60001FBF40070CF1605113F0FE4F70471CF05D
:104D7000006F03D100200CF0004170470CF000439D
:104D800043EA507010B540EACC0000F02DF900BFA6
:104D9000000000924FEA0001FFF7E0BE4FF0004133
:104DA0004FF00000A1F500217047401058BFC0F13E
:104DB0004040491058BFC1F140418142EFF30080AB
:104DC000704700004FF47F0C1CEAD0121EBF1CEA93
:104DD000D11392EA0C0F93EA0C0F00F0858090EA51
:104DE000010F48BF42F4807240F4000C41F400000F
:104DF0002CF07F4120F07F4000B58142A2EB0302FE
:104E00000FF2081CACEB504EC0F100009EF800E021
:104E10004FEA4E0E00FB0EFC38BF49004FEA2C1C37
:104E200002F5FA020CFB0EF34FEACE1E4FEA112CEC
:104E30004FEAC1210EEB635E42EB22420EFB0CFCFB
:104E40004FEA1C5300FB03114FEA112C4FEA0131CA
:104E50000EFB0CFC4FEADC4C00FB0C11C14228BFDE
:104E600009184CEB03335DF804EB10EB410143EB05
:104E7000C250B2F57C0F38BF704729D512F0F00F41
:104E80001CBF00F1C04000F00040704700818283E9
:104E90008485868788898B8C8D8E8F919293959649
:104EA00097999A9C9D9FA0A2A3A5A7A8AAACAEB0D3
:104EB000B2B3B5B7B9BCBEC0C2C5C7C9CCCED1D4D8
:104EC000D7D9DCDFE2E6E9ECF0F3F7FAFE00000008
:104ED0004FEA400C0CF1807CBCF17E4F28BF70473C
:104EE000B0F1C04000F0C6B890EA010F0CEAD1134F
:104EF00048BF42F48072624538BF634507D213F45D
:104F00007F0F16D080EA010000F00040704710B516
:104F100000F06AF8097EFC3E00F005B880EA010066
:104F200000F00040704780EA010000F0004000F00F
:104F3000A1B812F47F0F04BF0248704780EA010055
:104F400000F098B80000C07F41000B0ED3F19E0224
:104F500008D950F400034FEA032323FA02F048BFB4
:104F60004042704710B500F03FF800BF49922480DE
:104F7000002070476FF0004282EA20007047000076
:104F800050EA010C00F113801CF5000F58BFBCF56E
:104F9000000F01D48842704707D710F5000F58BFA3
:104FA00011F5000F15D488427047894270471CF5EF
:104FB000000F04D5BCF5000FF7D5814270474FF0C4
:104FC000807C1CEB400F38BF1CEB410F01D28142AB
:104FD000704710B500F008F8922449004FF00050D7
:104FE0004FF08051FFF7E1BE0EF1020E2EF0030EDE
:104FF0005EF8044B244204D44FEA4102B2F17F4FE1
:1050000011D84FEA4003B3F17F4F0CD80ED14FEACD
:10501000D07CB2F17F4F0CEB4C0C0CF1020C08BFB2
:105020004CEBD17C04E04FF0080C01E04FEAD17C5E
:105030000CEB4C0324FA03F404F00704B4F1040C61
:1050400006D20EEB840CBDE810404CF0010C60471A
:10505000DFE80CF0070802024FF00040A0F58000E6
:1050600010BD0846420018BFD2F1807288BF00F020
:10507000004010BDFF2141EAD050C005704751EA01
:10508000000C00F113801CF5000F58BFBCF5000F99
:1050900001D48142704707D711F5000F58BF10F5B2
:1050A000000F15D481427047894270471CF5000FEC
:1050B00004D5BCF5000FF7D5884270474FF0807CCF
:1050C0001CEB410F38BF1CEB400F01D288427047E8
:1050D00080EA010081EA000180EA0100FFF779BF60
:1050E000FEF71ABB040000080000000000000002E8
:1050F000000100001000000000000000000000009F
:1051000030313233343536373839414243444546FD
:1051100040305800303132333435363738396162F7
:10512000636465664030780002400000000000A023
:105130000000000005400000000000C80000000062
:105140000C4000000000409C0000000019400000DE
:105150000020BCBE0000000034400000BFC91B8E10
:1051600000000004B5400000504BCFD06607E2CFEE
:10517000010000006C4100003E8251AADFEEA7341E
:1051800001000000D9420000DCB5A0E23A301F97D0
:10519000FFFFFFFFB4450000FD25A0C8E9A3C14FF4
:1051A000FFFFFFFFFF3F0000000000800000000045
:1051B000FF3F0000000000800000000008530008CE
:1051C0000000002084000000280100088C53000823
:1051D00084000020A4200000440100081C000000FE
:1051E00043000000F8FFFFFF0C0000000E0000006D
:1051F0000F0000002E00000010010000430000001E
:10520000F8FFFFFF004040404040404040404141E7
:10521000414141404040404040404040404040408B
:105220004040404040050202020202020202020225
:105230000202020202202020202020202020200222
:1052400002020202020290909090909010101010B2
:10525000101010101010101010101010101010104E
:1052600002020202020288888888888808080808E2
:1052700008080808080808080808080808080808AE
:1052800002020202400000000000000000000000D6
:10529000000000000000000000000000000000000E
:1052A00000000000000000000000000000000000FE
:1052B00000000000000000000000000000000000EE
:1052C00000000000000000000000000000000000DE
:1052D00000000000000000000000000000000000CE
:1052E00000000000000000000000000000000000BE
:1052F00000000000000000000000000000000000AE
:10530000000000000000000000000000000000009D
:105310000000000000A24A0400000000000000009D
:105320000102030406070809000000000000000055
:10533000000000000001000000000000000000006C
:10534000295C8FC2F5280440000000000000000026
:10535000000000000000000000000000000000004D
:10536000000000000000000000000000000000003D
:10537000000000000000000000010203040102031D
:0C538000040607080902040608000000EB
:04000005080000ED02
:00000001FF
