:020000040800F2
:1000000038310020191800083104000833040008B2
:10001000370400083B0400083F040008000000000B
:100020000000000000000000000000004304000881
:1000300045040008000000004704000849040008C7
:100040003318000833180008331800083318000864
:100050003318000833180008331800083318000854
:100060003318000833180008331800083318000844
:100070003318000833180008331800083318000834
:100080003318000833180008331800083318000824
:100090003318000833180008331800083318000814
:1000A0003318000833180008331800083318000804
:1000B00033180008331800083318000833180008F4
:1000C00033180008331800083318000833180008E4
:1000D000331800083D100008AD120008331800085E
:1000E00033180008331800083318000800F002F82D
:1000F00000F090F80AA090E8000C82448344AAF132
:100100000107DA4501D100F085F8AFF2090EBAE82F
:100110000F0013F0010F18BFFB1A43F0010318473B
:10012000484D0000684D0000103A24BF78C878C1DF
:10013000FAD8520724BF30C830C144BF04680C60ED
:10014000704700000023002400250026103A28BF35
:1001500078C1FBD8520728BF30C148BF0B60704739
:100160006E2902F09A86702903F00580662904F052
:100170000D86652904F00A86672904F0078661293F
:10018000AFF3008003681B0A28BF41F08001692992
:1001900002F08A84642902F08784752902F084843D
:1001A0006F2902F09387782902F0D187E92902F0BC
:1001B0002D87E42902F02A87F52902F02787EF2905
:1001C00002F09087F82902F0D0870368DB0928BF86
:1001D00041F08001632902F09C86732902F0A18618
:1001E000E32903F02F82F32903F0348200207047C3
:1001F0001FB503F085FA04000020002103F06CFF16
:10020000401C60600020002103F050FFE0601FBD33
:1002100010B510BD03F046FA1146FFF7E9FF00F0F4
:1002200009F803F01FFB03B4FFF7F2FF03BC00F073
:1002300079FE000000F042FA4FF4A06001F00CFBE0
:100240004FF4E13000F07DFE00F034FB012000F0BF
:100250007EFB00F006FE4FF4E13001F0ACF8C8215F
:1002600055A001F083F9C82158A001F07FF95AA0E8
:1002700002F0A8FB9EE05B48007858B10020594985
:10028000087001F093F958A002F09CFB01205A4934
:10029000087010E05948007868B10020574908708C
:1002A000C82145A001F062F9C82148A001F05EF91B
:1002B00049A002F087FB5248008800281CDD514805
:1002C0005149098850F8210000280ADB50204F4985
:1002D00008704C484C49098830F821004C49088086
:1002E0000AE04E204949087046484749098830F8D5
:1002F000210040424649088044480078452846D0BD
:100300004E2822D0502802D0532852D14AE04048EB
:10031000008804F06DF980463E4A3F4B04F07CF9BA
:10032000064600223D4B03F01FFF044604F01CF973
:100330003B490880084601881F2000F0B2FD0320D9
:1003400000F0F9F900F054FB33E03148008804F084
:100350004FF906462F4A304B04F05EF9044600225E
:100360002E4B403304F056FA804604F0FDF82C4939
:100370000880084601881F2000F093FD032000F04C
:10038000DAF900F035FB20202049087011E0204800
:1003900002881E48017823A002F014FB20201B498C
:1003A000087006E021A002F00DFB2020174908701C
:1003B00000BF00BF5FE7000041542B4D5154544330
:1003C0004C45414E3D300D0A0000000041542B4386
:1003D000575141500D0A0000436C65617220574926
:1003E00046492100510000206D71747420636F6EC6
:1003F0006E656374656400005000002052000020A8
:1004000066000020D40A00200800002044000020DC
:10041000460000209EEFA7C64B370A40C0FFDF40D2
:1004200006000020256325640D0A00004A00000034
:10043000704700BFFEE700BFFEE700BFFEE700BF5A
:10044000FEE7704770477047704700000CB500200A
:10045000019000906C48006840F480306A49086060
:1004600000BF6948006800F4003000900198401C0B
:100470000190009818B90198B0F5A06FF1D16248C9
:10048000006800F4003010B10120009001E000206D
:1004900000900098012843D15C48006840F01000AB
:1004A0005A4908600846006820F0030008600846C2
:1004B000006840F0020008605348406852494860B4
:1004C0000846406848600846406840F480604860DC
:1004D0000846406820F47C1048600846406840F4B4
:1004E000E81048600846006840F08070086000BF6F
:1004F0004548006800F000700028F9D04248406884
:1005000020F00300404948600846406840F002007F
:10051000486000BF3C48406800F00C000828F9D152
:100520000CBD10B5FFF792FF10BD10B5364800683E
:1005300040F00100344908600846406834490840EA
:100540003149486008460068324908402E49086031
:100550000846006820F4802008600846406820F4BF
:10056000FE0048604FF41F008860FFF7DAFF4FF08D
:1005700000602949086010BD10B50021002000224C
:10058000214B5B6803F00C0121B1042906D0082936
:1005900028D107E0214B224C236027E01F4B204C41
:1005A000236023E0184B5B6803F47010164B5B6804
:1005B00003F48032022303EB904022B9194B4343EA
:1005C000174C23600DE0104B5B6803F4003323B13C
:1005D000144B4343124C236003E0104B4343104C35
:1005E000236003E00D4B0E4C236000BF00BF064BA1
:1005F0005B68C3F303130C4CE15C094B1B68CB40F5
:10060000074C236010BD0000001002400020024093
:100610000000FFF8FFFFF6FE08ED00E000127A0090
:100620000C00002000093D001000002010B586B02D
:1006300004460020ADF804004FF48270ADF80600C7
:100640000020ADF80800ADF80A000120ADF80C005C
:100650004002ADF80E002020ADF810000020ADF8EB
:1006600012000720ADF8140001A9204602F036F868
:100670000121204602F0D7F806B010BD10B504469F
:1006800000BF02210C4802F052F90028F9D021469F
:10069000094802F0F9F800BF0121074802F047F9C4
:1006A0000028F9D0044802F0F1F8C0B210BD10B52E
:1006B000FF20FFF7E3FF10BD0038004010B56FF0DA
:1006C000040001F018F92E4800682E49B0FBF1F043
:1006D0002D4908700846007800EB4001C1EBC010BE
:1006E0004FF6FF7101EAC0002849088010BD01469D
:1006F000254A12784A434FF0E0235A6100229A615A
:100700001A46126942F001021A6100BF4FF0E0225E
:10071000106900F001021AB100F48032002AF5D00D
:100720004FF0E022126922F001024FF0E0231A613B
:1007300000229A6170470146144A12884A434FF0DA
:10074000E0235A6100229A611A46126942F00102BE
:100750001A6100BF4FF0E022106900F001021AB1E7
:1007600000F48032002AF5D04FF0E022126922F026
:1007700001024FF0E0231A6100229A6170470000E5
:100780000C00002000127A0020000020220000202F
:100790002DE9F04105460E4617464FF48051FE48BC
:1007A00001F001FB3220FFF7A2FF002405E0285DE5
:1007B000FFF764FF3055601CC4B2BC42F7DB322047
:1007C000FFF795FF4FF48051F34801F0EAFABDE8D6
:1007D000F0811FB5062003900122694603A8FFF7A8
:1007E000D7FF1FBD1FB5082003900122694603A84B
:1007F000FFF7CEFF1FBD1FB50220039001226946FF
:1008000003A8FFF7C5FF1FBD1FB5102003900122ED
:10081000694603A8FFF7BCFF1FBDF0B585B00646CB
:100820000F4614460020039004900C2000EA870035
:1008300040F04000611E01F0030108439DF80C10D8
:100840000844C0B28DF80C00002504E0715D03AAD5
:10085000681C1154C5B2A542F8DB601CC2B26946DF
:1008600003A8FFF795FF05B0F0BD7CB505460E4621
:100870001446CAA103C9CDE900010C2000EA860094
:1008800040F02000611E01F0030108438DF80000D4
:10089000601CC2B229466846FFF77AFF7CBD38B5B6
:1008A0000446C0A000680090032221466846FFF776
:1008B0006FFF38BD08B50121880301F092FE0121C8
:1008C000082001F081FE0121102001F07DFE4FF48F
:1008D0000050ADF8000003208DF8020018208DF8BC
:1008E00003006946AC4801F0AFF94FF48040ADF821
:1008F00000006946A84801F0A7F94FF40040ADF8A0
:1009000000006946A44801F09FF94FF48050ADF80B
:10091000000010208DF8030069469F4801F094F90B
:100920004FF480519C4801F03CFA9F48FFF77EFE4F
:100930004FF48070ADF8000003208DF802002820ED
:100940008DF803006946994801F07EF908BD1FB58E
:10095000044697A00068039096A000680290FFF7F5
:1009600038FF0A20FFF7E7FE012C05D10422002101
:1009700003A8FFF752FF04E00422002102A8FFF7BA
:100980004CFF0A20FFF7D7FE042200216846FFF73C
:100990006CFF0A20FFF7CFFEFFF724FF1FBD2DE9F4
:1009A000FC4180A0006801900322694601A8FFF77E
:1009B000EFFE9DF8001009049DF8012001EB0221D3
:1009C0009DF80220881803F0FCFD04460D467A4885
:1009D0000CC82046294603F01FFE06460022774B2E
:1009E00003F06AFC04460D4620462946BDE8FC811A
:1009F0002DE9F04786B07248007801287ED10020AA
:100A00007049086082462BE0FFF7C9FF06460022C6
:100A10004FF0804303F000FE04466B4A6B4B03F03B
:100A200005FF00226A4BCDE9000103F0F5FD804689
:100A300089466448006803F0E3FF42464B46CDE92F
:100A4000020103F091FBCDE9040103F05BFB5D497A
:100A500008600220FFF76FFE0AF1010000F0FF0AB4
:100A6000BAF1030FD0DB00215648006804F05DF9AD
:100A70004BD25848007890B957495248006803F063
:100A8000F7FF054604F0B6F80446224653480188AD
:100A900053A001F097FF20205549087035E15548D3
:100AA00000880028FADD54480088524909888842A5
:100AB000F4DC49494348006803F0DAFF054604F0D6
:100AC00099F804464C4801880088401C4A4B18801D
:100AD0004A4850F82120234649A14D4801F07EFFA5
:100AE0004B494CA000F099FD4348008841490988D2
:100AF0008842D3D100203F49088000E0E3E03E492E
:100B0000088020203A490870FFE03248007848BB4E
:100B100032480088002812DD2A48006880F000462C
:100B20002D49304603F0A4FF054604F063F804465F
:100B300022462A4801883AA001F044FFE5E0214816
:100B4000006880F000462449304603F091FF0546D6
:100B500004F050F8044622462048018834A001F0F1
:100B600031FFD2E023480088002897DD2248008822
:100B700020490988884291DC20481F49098850F89B
:100B80002100002870DD0F48006880F000461249FF
:100B9000304603F06DFF53E0000C014000FFFFFF03
:100BA000FF000000FFFFFF00003800400008014088
:100BB00091A45800A1A45800380000200000604112
:100BC0002D00002030000020E9263108AC1C044034
:100BD0000088C34050000020000040400400002076
:100BE0007B503A25642C503A25647D0D0A000000A4
:100BF000440000206600002008000020D40A0020E5
:100C00007B503A253034645C2C503A25645C7D007E
:100C10007C00002022746573745F6461746122003B
:100C20007B503A25642C4E3A25647D0D0A00000065
:100C30007B4E3A25642C4E3A25647D0D0A00000057
:100C4000054603F0D7FF0446314801880088401C60
:100C50002F4B18802F4850F8212023462EA13248D0
:100C600001F0BCFE1BE0FFE73048006880F0004662
:100C70002F49304603F0FCFE054603F0BBFF044657
:100C8000234801880088401C214B1880214850F8D7
:100C900021004242234627A1234801F09FFE22491A
:100CA000AFF2900000F0B9FC194800882549098886
:100CB00088422AD100202349088015490880202035
:100CC0002149087021E02148007802281DD1012027
:100CD0001E490870FFF763FE00224FF08043CDE904
:100CE000040103F099FC0646194A1A4B03F09EFDD5
:100CF00080460022184B03F08FFC044603F002FAF2
:100D0000164908600120FFF722FE06B0BDE8F08713
:100D100008000020D40A00207B503A253034645C5F
:100D20002C4E3A25645C7D007C00002030000020C1
:100D3000000040407B4E3A253034645C2C4E3A250E
:100D4000645C7D0066000020440000202D0000202F
:100D5000E9263108AC1C04400088C3403400002060
:100D600070B505460E4601206B490860FFF7BFFCD1
:100D700000206A49C1F894016749091D08600724E9
:100D80002BE005F08000802804D101206249083161
:100D9000086003E000206049083108600120FFF787
:100DA000A6FC01205C49091D08600A20FFF79FFC92
:100DB00045FA04F000EBD0714910A0EB4101574A0D
:100DC000C2F89C110A20FFF792FC00205249091D2D
:100DD00008600A20FFF78BFC641E002CD1DA0F2478
:100DE00029E006F40040B0F5004F04D101204A4943
:100DF0000831086003E000204749083108600120FD
:100E00004549091D08600A20FFF771FC46FA04F005
:100E100000EBD0714910A0EB4101404AC2F89C118F
:100E20000A20FFF764FC00203B49091D08600A20E6
:100E3000FFF75DFC641E002CD3DA70BD08B50121FC
:100E4000082001F0C1FBF820ADF8000010208DF85B
:100E5000030003208DF802006946314800F0F4FEDB
:100E600008BD10B5FFF7EAFF20212D4800F099FFDB
:100E700010212B4800F095FF4021294800F093FFF6
:100E80008021274800F08FFF01212820FFF768FF0D
:100E900003212020FFF764FF01213820FFF760FFC6
:100EA00010BD70B505460C46182D0BD1B4F5803F2A
:100EB00003DA2146FFF754FF04E04FF6FF711820D4
:100EC000FFF74EFF192D0CD1B4F5803F04DA21460F
:100ED0001920FFF745FF04E04FF6FF711920FFF7D7
:100EE0003FFF1F2D0CD1B4F5803F04DA21461F20AF
:100EF000FFF736FF04E04FF6FF711F20FFF730FFCA
:100F000000200549083908606420FFF7F0FB012044
:100F10000249C1F88C0170BD9481214200802142B8
:100F2000000C0140014600BF704700BFB54A12885F
:100F300002F04002002AF9D0C2B2B24B1B1D1A8047
:100F4000704710B586B004460121042001F03CFB37
:100F50000121880301F038FB4FF40070ADF8140054
:100F600018208DF8170003208DF8160005A9A64853
:100F700000F06AFE4FF48060ADF8140004208DF894
:100F8000170005A9A04800F05FFE01940020ADF80D
:100F900010000C20ADF80E000020ADF80C00ADF8EC
:100FA0000A00ADF8080001A9964800F0DEFF012212
:100FB00040F22551934801F070F825208DF800008B
:100FC00001208DF803008DF801008DF802006846BD
:100FD00000F047FC01218B4801F053F806B010BD2A
:100FE00070B504460D462946204601F0B7F800BF0B
:100FF0008021204601F020F90028F9D070BD70B59D
:1010000004460D46C5F30800A08000BF802120469D
:1010100001F012F90028F9D070BD2DE9F041074622
:101020000D461646002400BF04E0315D7548FFF709
:10103000D7FF641CAC42F8DBBDE8F08170B540F22C
:101040002551704801F00EF900287DD000241FE0E2
:10105000002505E0681C85B2B5F57A7F00DD06E065
:1010600040F22551674801F0E7F80028F2D000BFB0
:10107000B5F57A7F05DD4520644908706448048031
:1010800008E0604801F06EF862490855601CC4B27F
:10109000062CDDDB00BF062C0FDA5E4800786328E3
:1010A00003D101205C49087006E05A480078732893
:1010B00002D101205949087070BD594800780128B3
:1010C0001FD150205149087056480088002870D020
:1010D000554800894FF47A7148435349898901EB97
:1010E000C10202EB011100EB81004F49098A01EBBB
:1010F000810100EB41004C49898A08444449088039
:1011000057E0062C55D143480078402803DD41487C
:1011100000785B2807DB3F480078602842DD3D48C7
:1011200000787B283EDA3B4880783A283ADA39481A
:1011300080782F2836DD3748C0783A2832DA3548AB
:10114000C0782F282EDD00E039E0324800793A28B7
:1011500028DA304800792F2824DD2E4800782B49E2
:1011600008702C48807830384FF47A714843294908
:10117000C978303901EBC10202EB011100EB8101AA
:1011800024480079303800EB800001EB4001214811
:101190004079303808441E490880084600882349B1
:1011A000088006E041201949087004F57A70184952
:1011B000088040F22551134801F07EF81FE0082115
:1011C000104801F039F8D0B10E480588001D058897
:1011D00017480088401C1649088045200B490870B4
:1011E0001348008800F5FA60094908801048008813
:1011F00040F2E731884202D100200D49088000BF4B
:101200005AE7000000380140000801404400002077
:10121000460000204800002051000020520000201D
:101220005000002066000020D40A002004000020A6
:101230004E00002010B504460021204600F047FC77
:10124000AF480188204600F057FC0121204600F0FD
:101250003EFC10BD10B54FF48060AA49C860AA4892
:10126000007878B90120A8490870A8480288A849E0
:10127000A84801F04AFDA848A2494860A74800F0E4
:10128000FBFB0EE00020A0490870A0480288A2499C
:10129000A04801F03AFD9E489A4948609F4800F0F6
:1012A000EBFB01219D4800F012FC10BD10B5102190
:1012B0009B4800F0C1FF58B340F22441984800F029
:1012C000C8FF974800889648001D00880021934871
:1012D00000F0FDFB914800F011FCC0F500708B4957
:1012E0000880FFF7B7FF8D48FFF7A4FF8DA000F03F
:1012F00023F930B101208C4908700020834908800F
:1013000010BD00F0DBF981480188824801F02FFD13
:1013100000BFF5E72DE9F04107460D4616461C468D
:101320000121084601F043F9384600F003FB7448F8
:101330000480744805604660002072498860084651
:10134000C460002008618020486100208861C86175
:1013500008624FF40050486200208862384600F06E
:101360008BFB6E481438FFF765FFBDE8F08170B560
:101370008CB006460C4615460121084601F017F9C7
:10138000304600F0D7FA0194029510200390002017
:101390000490059080200690002007900890099006
:1013A0004FF480500A9000200B9001A9304600F0C5
:1013B00063FB0CB070BD10B586B00446012104205B
:1013C00001F002F90121480401F00BF9544800F042
:1013D00089FD0420ADF8100003208DF812001820BC
:1013E0008DF8130004A9514800F02EFC0820ADF838
:1013F000100004208DF8130004A94C4800F024FCD0
:1014000000940020ADF80400ADF80600ADF8080027
:10141000ADF80C000C20ADF80A006946404800F019
:10142000A4FD012280213E4800F05CFE404A3C4978
:10143000091D3A481430FFF79AFF0122402138482D
:1014400000F050FE4FF40073314A3549091D33480E
:10145000FFF760FF0121324800F013FE012240F245
:1014600024412F4800F019FE26208DF81400022098
:101470008DF8150003208DF8160001208DF8170057
:1014800005A800F0EEF900202049088006B010BD44
:1014900070B504460D460021204600F018FB294691
:1014A000204600F029FB0121204600F010FB70BD12
:1014B0000FB438B505A800901D48009A049901F0B2
:1014C0006FFA0020009000BF1448143000F016FBA3
:1014D0000028F9D1164801F0F9FBC4B221460F48A3
:1014E0001430FFF7D5FF38BC5DF814FB10B5114878
:1014F00000F027FB18B10F48103800F036FB10BD84
:1015000060000020A80A00205C0000205E0000208F
:10151000A8060020A8040020A80800206C000240B3
:10152000004400404F4B00006200002000080140D2
:10153000A80000202000001010B5044600207849C3
:10154000784A128888542146754801F0ADFB10BDD9
:1015500010B504460021724A72480088401C11549C
:10156000214602F1190001F09FFB10BD70B5054640
:101570000C4600206C49087029466CA0FFF798FFC4
:1015800029466AA001F01EFA06E00120FFF7D3F811
:101590006548007800B103E0601E80B2041EF4D1FB
:1015A00000BF0CB9012070BD0020FCE710B502E0BF
:1015B00060A001F007FA4FF4FA6163A0FFF7D6FFCD
:1015C0000028F5D168A001F0FDF900BF4FF4FA71D1
:1015D00066A0FFF7CBFF0028F8D14FF47A70FFF731
:1015E000AAF800BF4FF47A716DA0FFF7BFFF002883
:1015F000F8D100BF4FF4FA7172A0FFF7B7FF0028CF
:10160000F8D159A001F0DEF94FF4FA70FFF793F822
:10161000002044490880012010BD30B595B0044633
:101620000D4614206E49087000203E4908802B4664
:1016300022466CA101A801F0D1F90CE068480078BD
:10164000401E6749087001206D49087064480078A1
:10165000002800DC05E0C82101A8FFF787FF00286B
:10166000ECD100BF0020664908702E490880012097
:1016700015B030BD014600200A783AB10A78303AF8
:1016800002EB4203C3EBC21200EBC2004A783AB14C
:101690004A78303A02EBC20303EB021200EB8200FD
:1016A0008A782AB18A78303A02EB820200EB420053
:1016B000CA7812B1CA78303A1044704710B551A0B8
:1016C000FFF746FF80B150204F49087014481D3085
:1016D000FFF7D0FF4D490A880988491C4B4B1980F8
:1016E0004B4941F8220016E04AA0FFF731FF88B1CC
:1016F0004E20454908700A481D30FFF7BBFF4142A4
:10170000424802880088401C404B1880404840F8FE
:10171000221000E010BD00200249088000BFF9E758
:10172000A80400205E0000206200002025730D0A3E
:1017300000000000636F6E6E656374696E672077EA
:101740006966692F722F6E0041542B43574A4150EE
:101750003D226950686F6E65222C2231393939304B
:1017600039323922000000002E00000041542B4D78
:10177000515454555345524346473D302C312C2249
:10178000455350222C22657370222C22313233347F
:10179000353637383930222C302C302C22220000BC
:1017A00041542B4D515454434F4E4E3D302C223119
:1017B00032342E37312E3233352E38222C31383810
:1017C000332C300041542B4D5154545355423D302D
:1017D0002C227375625F6D7367222C30000000004D
:1017E0006400002041542B4D5154545055423D301B
:1017F0002C25732C222573222C302C300000000065
:10180000630000205000000044000020660000201B
:10181000D40A00204E3A0000094880470948004792
:10182000FEE7FEE7FEE7FEE7FEE7FEE7FEE7FEE790
:10183000FEE7FEE704480549054A064B70470000ED
:101840002B050008ED000008382B0020383100205F
:10185000382D0020382D002031490143314A1160D4
:10186000704770B5002100230F22C47804B32D4CBB
:10187000246804F4E064C4F5E064210AC1F10403BF
:10188000CA40447804FA03F18478144021430901E2
:10189000254C0678A155047804F01F050124AC40BE
:1018A00005786D11AD0005F1E025C5F8004109E0AE
:1018B000047804F01F050124AC401C4D0678761115
:1018C00045F8264070BD1A4A0A400243154B1B1FBB
:1018D0001A60704739B1134A121D12680243114B46
:1018E0001B1D1A6006E00F4A121D126882430D4B41
:1018F0001B1D1A607047042808D14FF0E0210969C8
:1019000041F004014FF0E022116107E04FF0E021C7
:10191000096921F004014FF0E022116170470000D5
:101920000000FA050CED00E000E400E080E100E0DA
:1019300080FFFF1F01684FF6FE7211400160002119
:10194000016041608160C1608D49884208D18C4945
:101950000839496841F00F01894A083A51608AE024
:1019600087491431884208D185490839496841F0CE
:10197000F001834A083A51607DE08149283188426C
:1019800008D17F490839496841F470617C4A083AB6
:10199000516070E07A493C31884208D17849083971
:1019A000496841F47041764A083A516063E07449ED
:1019B0005031884208D172490839496841F4702190
:1019C0006F4A083A516056E06D496431884208D147
:1019D0006B490839496841F47001694A083A516015
:1019E00049E067497831884208D165490839496832
:1019F00041F07061624A083A51603CE061498842B6
:101A000006D1011F096841F00F01021F116032E089
:101A10005C491431884208D15A49091F096841F0CC
:101A2000F001584A121F116025E0564928318842BA
:101A300008D15449091F096841F47061514A121FC5
:101A4000116018E04F493C31884208D14D49091FC7
:101A5000096841F470414B4A121F11600BE049497B
:101A60005031884207D14749091F096841F4702164
:101A7000444A121F1160704710B50022026847F6F1
:101A8000F0739A430C6A8B6823430C6923434C69B7
:101A900023438C692343CC6923434C6A23438C6AD8
:101AA00023431A430260CB6843600B6883604B6832
:101AB000C36010BD0021016041608160C1600161AF
:101AC00041618161C161016241628162704721B1FE
:101AD000026842F00102026004E002684FF6FE7301
:101AE0001A40026070471AB103680B43036002E0BA
:101AF00003688B4303607047416070470146486844
:101B000080B2704701460020002201F080531BB1D3
:101B10001C4B083B1A6802E0194B083B1A6802EAA2
:101B200001030BB1012000E00020704700F080515C
:101B300019B11449091F086002E0114908394860C9
:101B4000704701460020002201F080531BB10D4B6D
:101B5000083B1A6802E00A4B083B1A6802EA0103D4
:101B60000BB1012000E00020704700F0805119B156
:101B70000449091F086002E00149083948607047BC
:101B8000080002400804024010B50446CC488442D4
:101B900008D10121042000F031FD0021042000F0D3
:101BA0002DFD46E0C748844208D10121082000F0FD
:101BB00025FD0021082000F021FD3AE0C2488442C2
:101BC00008D10121102000F019FD0021102000F0A3
:101BD00015FD2EE0BD48844208D10121202000F0EF
:101BE0000DFD0021202000F009FD22E0B8488442CC
:101BF00008D10121402000F001FD0021402000F02B
:101C0000FDFC16E0B348844208D10121802000F099
:101C1000F5FC0021802000F0F1FC0AE0AE4884428F
:101C200007D10121801500F0E9FC0021A01500F08A
:101C3000E5FC10BD10B50121084600F0DFFC0021D5
:101C4000012000F0DBFC10BD2DE9F041024600252B
:101C50000026002000230024002791F803C00CF088
:101C60000F0591F803C00CF0100CBCF1000F03D06D
:101C700091F802C04CEA050591F800C0BCF1000FD4
:101C800031D0146800202BE04FF0010C0CFA00F367
:101C9000B1F800C00CEA03069E4220D183004FF049
:101CA0000F0C0CFA03F7BC4305FA03FC4CEA0404DE
:101CB00091F803C0BCF1280F06D14FF0010C0CFACB
:101CC00000FCC2F814C00AE091F803C0BCF1480F50
:101CD00005D14FF0010C0CFA00FCC2F810C0401CFA
:101CE0000828D1D31460B1F800C0BCF1FF0F34DD77
:101CF000546800202EE000F1080C4FF0010808FAAB
:101D00000CF3B1F800C00CEA03069E4221D1830017
:101D10004FF00F0C0CFA03F7BC4305FA03FC4CEA36
:101D2000040491F803C0BCF1280F05D100F1080CA0
:101D300008FA0CF8C2F8148091F803C0BCF1480FFF
:101D400007D100F1080C4FF0010808FA0CF8C2F8AE
:101D50001080401C0828CED35460BDE8F0814FF6B7
:101D6000FF710180022181700421C1707047024619
:101D7000002093680B400BB1012000E00020704769
:101D80000146886880B2704702460020D3680B4045
:101D90000BB1012000E0002070470146C86880B206
:101DA000704701617047416170470AB1016100E00D
:101DB00041617047C16070474FF480320A438261CD
:101DC0008161826182698269704702460020434BCB
:101DD00018684FF68073184040EA021008433F4BE2
:101DE000186070473E49C8617047F0B50A46002345
:101DF00000240021002500F00046B6F1004F02D17A
:101E0000364EF16901E0354E7168C0F3034583B287
:101E100000F44016B6F5401F08D121F070612F4E36
:101E2000766826F070662D4F7E6012E000F4801612
:101E3000B6F5801F06D1032606FA05F4A14341F04A
:101E4000706106E0460D360103FA06F6B14341F033
:101E5000706122B1460D360103FA06F6314300F0F7
:101E60000046B6F1004F02D11C4EF16101E01B4E5D
:101E70007160F0BD30B500228B071C0F0F2303FAF1
:101E800004F2164B08338C1053F824309343134C50
:101E900008348D1044F8253023468C1053F8243034
:101EA0008C07240F00FA04F423430C4C08348D10E3
:101EB00044F8253030BD0A49DC3108607047000025
:101EC00000080140000C01400010014000140140D6
:101ED00000180140001C01400020014000000140AA
:101EE0000000204210B50446FB48844209D101217C
:101EF000880300F083FB00214FF4804000F07EFB5C
:101F000032E0F648844209D10121480400F083FB05
:101F100000214FF4003000F07EFB25E0F0488442C1
:101F200009D10121880400F076FB00214FF48020C4
:101F300000F071FB18E0EB48844209D10121C8048C
:101F400000F069FB00214FF4002000F064FB0BE07F
:101F5000E548844208D10121080500F05CFB00211E
:101F60004FF4801000F057FB10BD2DE9F04786B00C
:101F700005460E460024A24600BFA1460027B089B0
:101F800000B100BF2F462C8A4CF6FF700440F08849
:101F900004432C82AC894EF6F3100440B08831899A
:101FA0000843718908430443AC81AC8A4FF6FF4073
:101FB0000440B0890443AC8201A800F098FAC648F6
:101FC000874202D1DDF810A001E0DDF80CA0A8895D
:101FD00000F4004040B10AEBCA0000EB0A1031687F
:101FE0004900B0FBF1F807E00AEBCA0000EB0A1069
:101FF00031688900B0FBF1F86420B8FBF0F004010F
:102000002009642101FB1089A88900F4004040B137
:10201000322000EBC900B0FBF1F000F007000443F0
:1020200008E0322000EB09106421B0FBF1F000F071
:102030000F0004432C8106B0BDE8F0874FF4165121
:10204000016000218180C18001810C21418100213A
:102050008181704710B502460020108A4FF2FF03BD
:1020600018400B884C8823438C882343CC88234317
:102070001843108210BD0021018041808180C18001
:10208000704721B1828942F40052828104E0828942
:102090004DF6FF731A4082817047F0B50346002465
:1020A00000260025002040F66A17B94200D100BF83
:1020B0001846C1F3421401F01F06012707FA06F57E
:1020C000012C01D10C3004E0022C01D1103000E0D1
:1020D00014301AB107682F43076002E00768AF4366
:1020E0000760F0BD1AB1838A0B43838202E0838AC2
:1020F0008B4383827047028A4FF6F0731A40028244
:10210000028A0A430282704782894FF2FF731A40A3
:10211000828182890A438281704721B1828942F09B
:102120000202828104E082894FF6FD731A408281A7
:102130007047028A4FF6DF731A400282028A0A430E
:102140000282704721B1028A42F48042028204E096
:10215000028A4BF6FF731A4002827047C1F30802ED
:102160008280704701468888C0F3080070478189E3
:1021700041F0010181817047028BD2B20283028B50
:1021800042EA012202837047028B02F47F420283FB
:10219000028B0A430283704721B1828A42F02002F7
:1021A000828204E0828A4FF6DF731A40828270478F
:1021B00021B1828A42F01002828204E0828A4FF6C4
:1021C000EF731A408282704721B1828A42F008027E
:1021D000828204E0828A4FF6F7731A408282704747
:1021E00021B1828942F40042828103E08289C2F3F4
:1021F0000E028281704721B1828A42F4006282829B
:1022000004E0828A4FF2FF731A4082827047828A0A
:102210004FF6FB731A408282828A0A438282704799
:1022200021B1828A42F00202828204E0828A4FF661
:10223000FD731A408282704702460020B1F5007F8C
:1022400000D100BF13880B400BB1012000E000203B
:10225000704701F40072B2F5007F00D100BFCA439D
:102260000280704770B5024600240023002500203C
:1022700040F66A16B14200D100BFC1F3421501F029
:102280001F03012606FA03F3012D02D1968933407C
:1022900006E0022D02D1168A334001E0968A3340CF
:1022A0000C12012606FA04F41688344013B10CB15E
:1022B000012000E0002070BD10B50022002340F690
:1022C0006A14A14200D100BF0A1201249440A3B2B3
:1022D000DC43048010BD0000003801400044004091
:1022E00000480040004C004000500040DF480068BB
:1022F00040F00100DD49086008464068DC490840BC
:10230000DA49486008460068DA490840D749086059
:102310000846006820F4802008600846406820F4E1
:10232000FE0048604FF41F0088607047CF4909687D
:1023300021F48031CD4A11601146096821F48021D1
:102340001160B0F5803F03D0B0F5802F0ED106E0CC
:10235000C649096841F48031C44A116007E0C349A5
:10236000096841F4A021C14A116000E000BF00BF2C
:10237000704710B501460022002300204A11012AAF
:1023800002D1BA4C236806E0022A02D1B74C236A74
:1023900001E0B64C636A01F01F02012494401C4026
:1023A0000CB1012000E0002010BD38B500200090E5
:1023B0000024002500BF3120FFF7DBFF0546009811
:1023C000401C00900098B0F5A06F01D0002DF2D015
:1023D0003120FFF7CEFF08B1012400E000242046A1
:1023E00038BD01460020A14A106820F0F80040EAFC
:1023F000C10010607047A049086070470246002085
:102400009A4B586820F47C1042EA01031843974B1A
:102410005860704798490866704701460020934A03
:10242000506820F003000843506070478F484068B0
:1024300000F00C007047014600208C4A506820F0E4
:10244000F00008435060704701460020874A5068FA
:1024500020F4E06008435060704701460020834A42
:10246000506820F4605040EAC1005060704729B1C4
:102470007E4A527A02437D4B5A7204E07B4A527A7A
:1024800082437A4B5A7270477B49D8310860704753
:1024900001460020754A506820F4404008435060CF
:1024A00070470021714A20321170704A82F8201062
:1024B000012802D004280AD104E001216B4A20320D
:1024C000117005E00521694A2032117000E000BF5B
:1024D00000BF70476949086070476449096A014351
:1024E000624A11627047654944390860704730B5E7
:1024F00000210022002400235C4D6D6805F00C01D2
:1025000021B1042905D0082923D105E05C4D0560DF
:1025100022E05B4D05601FE0544D6D6805F47012BC
:10252000524D6D6805F48034022505EB92421CB9CA
:10253000544D554305600BE04C4D6D6805F4003576
:102540001DB1504D5543056002E04D4D55430560AA
:1025500002E04B4D056000BF00BF444D6D6805F0C3
:10256000F0010909484D6B5C0568DD4045603F4D51
:102570006D6805F4E061090A434D6B5C4568DD4018
:1025800085603A4D6D6805F46051C90A3E4D6B5C3B
:102590004568DD40C560354D6D6805F44041890BE7
:1025A0003A4D6B5CC568B5FBF3F5056130BD29B1EB
:1025B0002E4A526902432D4B5A6104E02B4A52695C
:1025C00082432A4B5A61704729B1284A92690243D3
:1025D000264B9A6104E0254A92698243234B9A6113
:1025E000704729B1214AD2690243204BDA6104E0E5
:1025F0001E4AD26982431D4BDA61704729B11B4ADA
:10260000D2680243194BDA6004E0184AD268824368
:10261000164BDA60704729B1144A12690243134B12
:102620001A6104E0114A12698243104B1A61704723
:1026300012494039086070470F49C86470470B4918
:10264000C87170470948406A40F080700749486285
:10265000704701460020054A92680A400AB10120ED
:1026600000E0002070470149887270470010024066
:102670000000FFF8FFFFF6FE0000424280044242E5
:1026800000127A0000093D00680000207800002058
:1026900010B50446BE48844208D101218014FFF7DA
:1026A000ADFF0021A014FFF7A9FF16E0B94884424E
:1026B00008D101210014FFF7AEFF00212014FFF71D
:1026C000AAFF0AE0B448844207D10121C013FFF7F2
:1026D000A2FF0021E013FFF79EFF10BD10B50022FE
:1026E000028802F441520B884C8823438C88234390
:1026F000CC8823430C8923434C8923438C8923436F
:10270000CC8923431A430280838B4FF2FF7423400A
:1027100083830B8A038210BD2DE9F04F85B00546F7
:102720000C464FF0000902274FF000084FF0010B54
:102730000026B246A88B4FF240010840A883022031
:102740002884B5F81C90A068022801D100BF38E0A9
:10275000A08810B94FF0010B01E04FF0020B8D483B
:10276000854200D100E000BF6846FFF7C0FEDDF8FB
:1027700000A0E088B0F5007F0AD14FEA1A2000EBF4
:1027800080004000A168B0FBF1F0401D86B20BE074
:102790004FEA4B10BAFBF0F000EB80004000A1685C
:1027A000B0FBF1F0401D86B20A20B6FBF0F606F051
:1027B0000108A6EB0800C0F34F074FF6FF7000EAD0
:1027C0000828022F01DBFF2F02DD02274FF000084F
:1027D000E08840EA080038432884A088A18908439B
:1027E000618808432188084340F4006040EA0909F1
:1027F000A5F81C9005B0BDE8F08F00210180418054
:102800008180C180018141818181C1810721018253
:1028100070470021018041808180C1800221816058
:1028200000218181704721B1028842F0400202807C
:1028300004E002884FF6BF731A400280704721B14E
:10284000828B42F48062828304E0828B4FF6FF33F6
:102850001A408283704730B5002400230C110125F3
:10286000A540ABB21AB185881D43858002E08588FA
:102870009D43858030BD1AB183880B43838002E07D
:1028800083888B43838070478181704701468889A4
:1028900070474FF6FF62914204D0028842F4807282
:1028A000028004E002884FF6FF631A4002807047FE
:1028B00021B1828842F00402828004E082884FF6CF
:1028C000FB731A408280704702884FF2FF731A40F0
:1028D000028002880A4302807047018841F48051D7
:1028E0000180704721B1028842F40052028004E066
:1028F00002884DF6FF731A4002807047024600209E
:10290000012901D0108B00E0908A70470146088AA7
:102910007047B1F5804F04D1028842F480420280B2
:1029200004E002884BF6FF731A40028070470246AB
:10293000002013890B400BB1012000E000207047FC
:10294000CA4302817047F0B50246002000240023EC
:10295000002501F00F070126BE40B4B20B1101267D
:102960009E40B3B2968806EA03051689264016B142
:102970000DB1012000E00020F0BD10B5002201F0F3
:102980000F040123A3409AB2D343038110BD00007A
:102990000030014000380040003C0040704700001B
:1029A0001CB50C46064B7B4469460090204600F05F
:1029B0008EFA04460020694600F09CFA20461CBDB1
:1029C0004B0500000FB4044910B503AA029800F0AB
:1029D000ADFA10BC5DF814FB400000200FB41CB52C
:1029E000084B06AA7B4469460090059800F06FFAF0
:1029F00004460020694600F07DFA20461CBC5DF8C4
:102A000014FB00000D05000070B5044685690068E0
:102A1000C10601D5302600E02026C00707D070BDD2
:102A2000D4E9012130469047206A401C20626D1E87
:102A3000F6D570BD70B5044685690078C00707D12A
:102A400070BDD4E9012120209047206A401C2062FB
:102A50006D1EF6D570BD70B50C460546012A05D031
:102A60002878800600D5EA69002302E0012305E00A
:102A70005B1C934202D2E05C0028F9D1A869E618F9
:102A8000C01AA861286A184428622846FFF7BCFFCC
:102A900004E0D5E9012114F8010B9047B442F8D3C2
:102AA0002846FFF7C7FF70BD2DE9F0410646002418
:102AB00010687529314616A510D000F083F900285A
:102AC00002DA404213A507E031688A0701D512A552
:102AD00002E0490704D511A5012401E000F07BF9CB
:102AE00000210A2206F1240709E0B0FBF2FCB0FB4A
:102AF000F2F302FB1C00303078541846491C0028C1
:102B0000F3D123462A463046BDE8F04100F06CB9C7
:102B1000000000002D0000002B000000200000003D
:102B20002DE9F05F894604464FF0000ADFF874B1E2
:102B3000FB44C0F820A02046E1688847002874D0F4
:102B4000252806D0D4E901219047206A401C206244
:102B5000F1E700265F462046E168884720280546C1
:102B600007DB312D05D2781910F8200C08B1064387
:102B7000F1E7B00701D526F00406C4F81CA0002731
:102B8000C4F818A02A2D09D0284601F088FA38B3D5
:102B900004EB8708303DC8F8185019E059F8041BB9
:102BA000204604EB87029161E1688847012F0546C2
:102BB00018D1E069002820DA26F020061DE0D8F8B8
:102BC000180000EB800005EB40003038C8F8180012
:102BD0002046E1688847054601F061FA0028EED1F9
:102BE000012F0AD02E2D08D12046E16888477F1C8E
:102BF0000546022F46F02006C4DBA069002803DA50
:102C0000404246F00106A061F00701D026F0100610
:102C10006C2D0BD0682D09D04C2D39D06A2D35D0B4
:102C2000742D35D07A2D33D016E038E0E1682F4688
:102C300020468847B842054609D16C2F26D04FF46C
:102C40008060E168064320468847054604E06C2F13
:102C50001AD04FF4807006430DB3A5F14100192836
:102C600002D8203546F400664A46294620462660AA
:102C70004E46FDF775FA80B101280BD0F61D26F0FF
:102C8000070000F1080956E74020E4E78020D8E774
:102C90000020D6E706F104094DE7284652E7206AEE
:102CA000BDE8F09F5C22000030B505460B462A4681
:102CB00013F8014B12F8010B08B1A042F8D01CB177
:102CC000002802D06D1CF1E7284630BD10B5431C2A
:102CD00002E010F8011B71B18107FAD14FF0013207
:102CE00002C88C1A8C4314EAC211F9D0C01A0A0621
:102CF00003D0C01E10BDC01A10BD0A0401D0801E32
:102D000010BD0902FCD0401E10BD10B5203AC0F025
:102D10000B80B1E81850203AA0E81850B1E81850DC
:102D2000A0E81850BFF4F5AF5FEA027C24BFB1E819
:102D30001850A0E8185044BF18C918C0BDE810408A
:102D40005FEA827C24BF51F8043B40F8043B08BF93
:102D50007047D20728BF31F8023B48BF11F8012B5A
:102D600028BF20F8023B48BF00F8012B70474FF006
:102D7000000200B5134694469646203922BFA0E8CB
:102D80000C50A0E80C50B1F12001BFF4F7AF0907D7
:102D900028BFA0E80C5048BF0CC05DF804EB8900C8
:102DA00028BF40F8042B08BF704748BF20F8022B0B
:102DB00011F0804F18BF00F8012B70477047704723
:102DC0007047704709684A0501D540B27047C90588
:102DD000FCD500B2704709684A0501D5C0B27047FA
:102DE000C905FCD580B270472DE9F0470D469946DC
:102DF0009246044600F124080168880604D5E0697B
:102E000021F01001216000E00120A84201DD471BF4
:102E100000E00027A1697A1902EB0900081AA061F5
:102E20002078C00602D42046FFF7EEFD002608E019
:102E3000D4E901211AF806009047206A401C761C4C
:102E400020624E45F4DB2078C0060AD52046FFF705
:102E5000DBFD06E0D4E9012130209047206A401CC8
:102E60002062381EA7F10107F4DC07E0D4E9012154
:102E700018F805009047206A401C2062281EA5F122
:102E80000105F3DC2046FFF7D5FD2078000602D5CA
:102E90000220BDE8F0870120FBE711680268006AA4
:102EA000530501D508700AE0D30501D5088006E076
:102EB000130603D5C217C1E9000200E00860012033
:102EC0007047000001694A1C02610878704700B52C
:102ED0008FB0CDE901310021059105497944CDE953
:102EE000031011466846FFF71BFE0FB000BD00003F
:102EF000E5FFFFFF0A6802F8010B0A60704710B592
:102F0000436913B1AFF3008001E0FFF7A4FD012096
:102F100010BD127800F124010A7000224A700122CB
:102F2000EDE711684FF0FF32E9E70000074B70B59D
:102F30000D467B44FFF7CBFF0446284600F08EFB8E
:102F400010B14FF0FF3070BD204670BDF5DFFFFFC0
:102F50002DE9FF5F15468A460446DFF8AC80F84449
:102F60000027D8E900103E46CDE9001010E03AF8FD
:102F700016106A4602A800F075FB411C07D02178A4
:102F8000890603D5E269391891420DD80744761CA9
:102F90002078800602D5E069B84205DDAE42E6DB66
:102FA0003AF816000028E2D1A069C01BA0612046B3
:102FB000FFF72AFDD8E90010CDE90010002017E046
:102FC0003AF818106A4602A800F04CFBB0F1FF3F37
:102FD00081460BD000250DF1080B05E0D4E9012155
:102FE0001BF8050090476D1C4D45F7D308F1010013
:102FF000B0428046E4DB206A384420622046FFF776
:1030000019FDBDE8FF9F0000421E00002DE9F041C0
:103010008046D21D22F007020025D2E90002F529E0
:1030200015A614D0011E72F1000106DA0023D0EBC0
:10303000030063EB020211A608E0D8F800108B072A
:1030400001D50FA602E0490701D50EA601251146BC
:10305000002408F1240704E000F098F830323A55D3
:10306000641C50EA0102F7D12B4632462146404605
:10307000BDE8F041FFF7B8BE000000002D000000E1
:103080002B0000002000000030B4002100F12404D7
:1030900008E002F00705D208303542EA4372DB0847
:1030A0006554491C52EA0305F3D10468002310A2B9
:1030B000250708D504F020040C4304D0C46901237B
:1030C0000CA2641EC46130BCFFF78EBE10B504466E
:1030D00021461068FFF77FFE02462046BDE81040FB
:1030E0000023D1E7D21D22F00701D1E90023CBE76D
:1030F0000000000030000000F0B40D460188090512
:1031000002D5214C7C4402E01F4C7C440E3400214B
:1031100000F1240608E002F00F071209E75D42EA19
:1031200003721B097754491C52EA0307F3D1027852
:103130000023120704D5702D06D009B102231134E3
:103140002246F0BCFFF750BE01231034F8E770B5FB
:1031500004460D4621461068FFF73DFE024629460B
:103160002046BDE870400023C6E7D21D22F00703C9
:10317000D3E90023C0E70368126843F0200303602B
:103180000823C3610023B7E7A41C000030B5B0F1E9
:103190000A024FEA900E71F100034EEA817EB0EB15
:1031A0000E0061EB91014FEA101E4EEA017E10EB1A
:1031B0000E0041EB11114FEA102E4EEA016E10EB9A
:1031C0000E0041EB11214FEA104E4EEA014E10EB7A
:1031D0000E0041EB1141401841F100014FEAD000CF
:1031E00040EA41704FEAD10110EB80054FEA8104BB
:1031F00044EA907444EB01046D1944EB0404521B3F
:10320000A3414FF0000348BF0A3200D530BD401C37
:1032100041F1000130BD70472DE9FF4F0C461E46BD
:103220004FF0FF378BB0D2E90001DDF860800A90E3
:103230008A46C1F30A5505B93D46002108464FF0BC
:103240000000BAF1000F00F4400005DA00EB800046
:103250004FF4400101EA50004FEA9059B9F1010FD3
:1032600000DDB9460A9850EA4A000ED044F61050E4
:10327000A5F2FF3545432F14B8F1000F1ED075425B
:10328000291E1EDDC9F100021CE0B8F1010F4FF04C
:10329000000001D0302103E0F24305E02154401C3E
:1032A000B042FBDB30460022002121540B99C1F8CB
:1032B0000880C1E900200FB0BDE8F08FBD1B6D1C78
:1032C000DEE74A4600DA694206A800F05DFA06AB7E
:1032D00093E8070003AB83E8070050460A9900F023
:1032E0000FFB8DE80700A0F500501F3800900398F1
:1032F000002D09DD42F21F014A46084403A903904C
:10330000684600F06EFD08E0A0F500504A461F3800
:1033100003A90390684600F078FD8DE807000004DB
:10332000000C03D04FF0FF30410800E01046B8F128
:10333000000F03D00022009215461EE0751E05D432
:10334000FFF724FF303262556D1EF9D5B3460122D6
:10335000084302D000227F1C04E02078302801D1ED
:1033600000227F1E002A099786D01DE0112D07DA62
:10337000FFF70CFF303262556D1C50EA0102F5D1A7
:10338000084302D00098C8B10EE00021681E05E095
:10339000235C625C63542254401E491C8142F7DB6B
:1033A000AB46A81B401E0990002004F80B000B98A8
:1033B000099AC0F80880C0E9002B7CE711264FF07D
:1033C000000859E72DE9F04F88460446D21D22F047
:1033D000070191B0D1E90001CDE90A0100F04BFEEF
:1033E00002460B98C00F01D02D2007E0206881070E
:1033F00001D52B2002E0202101EAC000032A099018
:1034000001D0072A05DB03464146204600F07CF93F
:103410000BE12078800601D5E06900E00620B8F1D4
:10342000650F814606D0B8F1660F18D0B8F1670F66
:1034300070D131E00020B9F1110F009001DB1123B0
:1034400001E009F101030AAA01A90CA8FFF7E4FEB3
:10345000DDE90C70002609F10105834647E00120F3
:103460004B4600904FF000470AAA01A90CA8FFF7AD
:10347000D3FEDDE90DB00C995D46002610B909F1C7
:1034800001000D18B9EB050003D4C0F1FF3609F1B6
:103490000105A5EB09002BE0B9F1010F01DA4FF0AE
:1034A00001090020B9F1110F0090484601DD1123F8
:1034B00000E003460AAA01A90CA8FFF7ADFEDDE96A
:1034C0000C704D4600268346207800070AD4AB4591
:1034D00000DA5D4601A8012D04DD411911F8011C37
:1034E000302907D04F4502DA17F1040F04DA012022
:1034F00082460FE06D1EEEE7002F02DCED1B3E441E
:1035000003E0781CA84200DD7D1CB81B00F1010A15
:103510004FF000472078000703D4AA4501DB4FF0A5
:10352000FF3A0021B7F1004F0DF143088DF8431029
:1035300024D002202B23002F01DA7F422D230A21E1
:10354000021EA0F1010000DC5FB197FBF1FC97FBCC
:10355000F1F201FB1C7C17460CF1300C08F801CD90
:10356000EEE7A8F1010003702188090501D5452186
:1035700000E06521A0F1010800F8011C09980FA9DD
:10358000A1EB0807FF1D00B10120411901EBEA7012
:10359000A1693844081A401EA0612078C00602D4F0
:1035A0002046FFF731FA099828B1D4E90121904764
:1035B000206A401C20622078C00622D52046FFF7F2
:1035C00023FA1EE0002E04DBB34502DD01A8805D76
:1035D00000E03020D4E901219047206A401C20629D
:1035E000761CAAF101005FEA000A0AD100F088F80F
:1035F000C0680168405CD4E901219047206A401C02
:103600002062281EA5F10105DCDC07E0D4E90121D8
:1036100018F8010B9047206A401C2062381EA7F161
:103620000107F3DC2046FFF705FA032011B043E65B
:1036300010B5436913B1AFF3008001E0FFF788FCD8
:10364000012010BD128800F1240182840022C2846E
:103650000122EDE711684FF0FF32E9E7007B00F04F
:103660008000704770B516460C46054600F040F8DD
:10367000036893F80101012806D0FF2C0FD8185DCC
:1036800068B101202C7070BDD3F807013246214685
:1036900003F2071303442846BDE8704018474FF073
:1036A000FF3070BD754600F0E7F8AE46050069468C
:1036B000534620F00700854618B020B5FEF7BAF84B
:1036C000BDE820404FF000064FF000074FF0000823
:1036D0004FF0000B21F00701AC46ACE8C009ACE8A4
:1036E000C009ACE8C009ACE8C0098D4670470000CD
:1036F00010B500F005F8001D10BD00BFDD09000089
:1037000000487047F42A00202DE9F0411F46044686
:1037100003260168072A01F4006004DB08B116A53E
:1037200005E016A503E008B115A500E015A521F0F8
:1037300010002060A069C01EA0610FB1401EA061F2
:103740002046FFF761F94FB1D4E90121384690478F
:10375000206A401C2062C01C206206E0206AFAE752
:10376000D4E9012115F8010B9047761EF8D22046C6
:10377000FFF760F9BDE8F0814E414E006E616E00CA
:10378000494E4600696E66002DE9F04781461646AF
:103790008AB0334878440DC88DE80D00304878442D
:1037A000801C03AC0DC884E80D0041F69B30084432
:1037B000372190FBF1F290FBF1F5A5F1800501FBBB
:1037C00012041B3C02D56442012000E00020DFF817
:1037D00090A080460027FA44AAF1BE0A0DE0E00757
:1037E00009D03246684607EB47010AEB810100F039
:1037F0000CFB8DE8070064107F1C002CEFD1184FE4
:103800007F44AC3F18E0E80714D007EB04100DF13B
:10381000180A90E80E008AE80E00C068F04201D154
:1038200098190890324606A903A800F0EEFA03ABF7
:1038300083E807006D10641C002DE4D13246694610
:10384000B8F1000F03A802D000F0CBFA01E000F0BD
:10385000DCFAC9E90001C9F808200AB0BDE8F08720
:10386000B816000010B50446AFF300802046BDE84E
:103870001040FCF7D8BC000000487047D42A002054
:103880004FF0013C50F8042B51F8043B9A4221D1EF
:10389000A2EB0C03934313EACC1317D150F8042B7B
:1038A00051F8043B9A4215D1A2EB0C03934313EA5F
:1038B000CC130BD150F8042B51F8043B9A4209D198
:1038C000A2EB0C03934313EACC13DBD04FF00000C0
:1038D000704700BFD01A01BAB1FA81F101F01801A6
:1038E00022FA01F0CB40C1F12001DBB2C0B2C01A14
:1038F0002CFA01F3D11A914311EAC311E6D17047B2
:103900005FEA400C08BF91F0000F4FEA8C234FEAAA
:10391000C12243EA51514FEA1C5018BF00F5F04054
:103920004FEA300018BF41F000415FEA6C5C00F0E4
:103930002980BCF1FF3F08BF40F080407047130C66
:1039400006BF12044FF0100C4FF0000C130E04BF12
:1039500012020CF1080C130F04BF12010CF1040C3D
:10396000930F04BF92000CF1020CD30F04BF52005E
:103970000CF1010C11464FF00002A0F11F00A0EB6A
:103980000C00704711F0004F08BF704731F0004144
:103990003FF4D5AF0B0C06BF09044FF0100C4FF0ED
:1039A000000C0B0E04BF09020CF1080C0B0F04BF36
:1039B00009010CF1040C8B0F04BF89000CF1020CFF
:1039C000CB0F04BF49000CF1010CCCF12003A0EB9C
:1039D0000C0022FA03F302FA0CF241EA030100F1AF
:1039E0000100704720F07F4C80EA030023F07F47FE
:1039F000ACEB070303F57C5300F0004003F1FF0339
:103A00002DE980494FEA154B09B44FEA144325EAE2
:103A10000B4E24EA03480FF2042606EB132749084D
:103A20003E785FEA320203FB0667C7F5000707FB33
:103A300006F64FEA54374FEAD64606F1020607FB70
:103A4000066CCCF1005C4FEA1C472CEA074C07FBE4
:103A500006F40CFB06F504EB15464FEA961634BF48
:103A600000204FF000404FEAD13706FB07FC4FEA39
:103A70001C4C0CFB0BF7D21B03FB0CF761EB070193
:103A80000CFB0EF7B0EB074072EB17420CFB08F78C
:103A900034BFA2EB0742B2EB074261EB17414FEA9A
:103AA0000C444FEA910706FB07FC4FEA1C4C0CFB49
:103AB0000BF7B0EBC74072EB573203FB0CF734BF88
:103AC000A2EBC742B2EBC74261EB57310CFB0EF7DA
:103AD000B0EBC70072EB57720CFB08F734BFA2EBD8
:103AE000C702B2EBC70261EB5771039F4FEA8161D6
:103AF00041EA921104EBCC044FEAD1374FEA8262DB
:103B000006FB07FC42EA90124FEA80604FEA1C4C29
:103B10000CFB0BF7D21B03FB0CF761EB07010CFB53
:103B20000EF7B0EB074072EB17420CFB08F734BFFF
:103B3000A2EB0742B2EB074261EB17414FEA8C550B
:103B40004FEA910704EB9C2406FB07FC4FEA1C4C50
:103B50000CFB0BF7B0EBC74072EB573203FB0CF7D3
:103B600034BFA2EBC742B2EBC74261EB57310CFB4B
:103B70000EF7B0EBC70072EB57720CFB08F734BFBF
:103B8000A2EBC702B2EBC70261EB577115EB4C25F4
:103B90004FEA816141EA92114FEA82624FEAD137DE
:103BA00042EA901206FB07FC44F100044FEA8060F1
:103BB0004FEA1C4C0CFB0BF7D21B03FB0CF761EB21
:103BC00007010CFB0EF7B0EB074072EB17420CFB42
:103BD00008F734BFA2EB0742B2EB074261EB174193
:103BE00015EB1C154FEA813141EA92414FEA8232CE
:103BF00042EA90424FEA80304FEA0C7644F10004EA
:103C000048EA03434EEA0B484FF0000EB2EB080CB3
:103C100071EB030724BF624639464EEB0E0E4FF0A0
:103C2000000B0018524149414BEB0B0BB2EB080C57
:103C300071EB03077BF1000B24BF624639464EEB64
:103C40000E0E4FF0000B0018524149414BEB0B0B8D
:103C5000B2EB080C71EB03077BF1000B24BF62464B
:103C600039464EEB0E0E51EA020718BF46F0010628
:103C700016EB0E7655F1000254F1000103D5BDE8B4
:103C80008901BDE80088BDE88901BDE80048B61992
:103C9000524141EB0101A3F10103704780807F7E17
:103CA0007D7C7B7A797877767675747372717170B2
:103CB0006F6E6E6D6C6C6B6A6A6968686766666564
:103CC0006464636362616160605F5F5E5E5D5D5CF2
:103CD0005C5B5B5A5A595958585757565655555563
:103CE0005454535352525251515050504F4F4F4EC3
:103CF0004E4D4D4D4C4C4C4B4B4B4A4A4A49494911
:103D00004848484747474746464645454544444452
:103D1000444343434342424242414141002B26D463
:103D2000770021D01CB54FEA370703B44FF01000DD
:103D30004FF010014FF000000FBCBDE810400BF138
:103D4000010BBBF1010F08BF5FEA170722BF12F199
:103D5000010211F101014FF0004143F1000300F0B5
:103D6000004043EA00007047F9D35708DAE746EA13
:103D7000064613F1400F4FEA16461FDD13F1200FE0
:103D8000DFBF16430A46002120335B42C8D0C3F18F
:103D9000200746EA064602FA07F74FEA164646EAC1
:103DA0000706C3F1200722FA03F201FA07F721FA06
:103DB00003F14FF0000342EA0702B1E746EA0206C8
:103DC00046EA06464FEA164646EA0106BCBF46EA00
:103DD0000646360C4FF000034FF000024FF0000192
:103DE0009EE72DE9C048934630B491E8380007C8F3
:103DF00031EA400C48BF34EA430C03D5FFF7F2FD2B
:103E0000FFF78CFFF0BCBDE800882DE9C048934661
:103E100030B491E8380007C810F0804F08BF13F0A5
:103E2000804F03D100F005F8FFF778FFF0BCBDE844
:103E3000008820F07F4780EA030023F07F4C07EBE7
:103E40000C03A3F57C5300F00040A3F1FE0392F0B5
:103E5000000F00F0B38095F0000F00F077802DE99F
:103E600001494FEA11404FEA144621EA004800FB9D
:103E700006FC24EA064708FB06F607FB08F800FBE9
:103E800007F718EB06484CEB164C4FEA124B18EBB1
:103E900007484FEA15464CEB174022EA0B4E0BFB46
:103EA00006FC25EA06470EFB06F607FB0EFE0BFB9B
:103EB00007F71EEB064E4CEB164C4FF000061EEBC0
:103EC000074E4CEB174B18EB0B0840F1000018EBBA
:103ED0000E0B58EB000840F100008F1A4FF0000164
:103EE0003CBFC943661B14BFB5EB040C00213CBFAB
:103EF000C943F61B4FEA17444EEA8E0E27EA0445E3
:103F00004FEA1C4704FB07622CEA074C05FB07F746
:103F10000CFB05F604FB0CFC16EB074642EB1742C4
:103F200016EB0C4642EB1C421BEB060658EB02025A
:103F3000414146EA9E0601D5BDE80189B6195241C4
:103F400041EB0101A3F10103BDE801894FEA1445EA
:103F50004FEA114724EA054621EA074C05FB07F41E
:103F600006FB07F70CFB06F105FB0CFC11EB074108
:103F700044EB17444FEA124711EB0C4144EB1C444D
:103F800022EA074C05FB07F206FB07F70CFB06F6D7
:103F900005FB0CFC16EB074642EB174216EB0C46F2
:103FA00042EB1C456A1854F1000148BF7047B6192E
:103FB000524141EB0101A3F10103704795F0000F5D
:103FC00037D04FEA11424FEA144721EA024624EA69
:103FD000074C02FB07F106FB07F70CFB06F402FB9C
:103FE0000CFC14EB074441EB17414FEA154714EB67
:103FF0000C4441EB1C4125EA074C02FB07F506FB8C
:1040000007F70CFB06F602FB0CFC16EB074645EB2C
:10401000174516EB0C4645EB1C42121951F10001F5
:1040200048BF7047B619524141EB0101A3F10103AA
:1040300070474FEA14454FEA114724EA054621EA42
:10404000074C05FB07F106FB07F70CFB06F24FF0E8
:10405000000605FB0CFC12EB074241EB174112EB8B
:104060000C4251EB1C4148BF7047921841EB0101D3
:10407000A3F101037047490050EAC12018BF042092
:104080004A0D18BF40F0010040F2FF72B2EB515FE1
:1040900008BF40F00200012808BF052070473038F3
:1040A0000A2801D2012070470020704710B500296E
:1040B0000AD00878002807D005487844FFF7E0FBCD
:1040C000002801D0002010BD0248784410BD000037
:1040D000CE0D0000C60D000010B500290AD00878EA
:1040E000002807D005487844FFF7CAFB002801D014
:1040F000002010BD0248784410BD0000BE0D000035
:10410000B60D000021F00042A2F16052B2F5801F0E
:1041100001F0004328BFD2F17F6C0BD95FEA001C8D
:1041200043EAC20242EB507018BF704728BF20F02C
:1041300001007047B2F5801FBCBF184670474FEAB8
:10414000410C1CF5001F02D2084600F0E9BD70B515
:1041500000F00CFB00000089FFF7F6BF4FF00040B5
:10416000A0F580007047000010B591EA030F48BF2A
:1041700083F0004300F16283841A71EB030C05D2D3
:10418000121943EB0C03001B61EB0C01DFF824E177
:104190004FEA1154A4EB135C1EEA430F18BF9EEACA
:1041A000445F73D023EA0E03DCF1200E21EA0451B0
:1041B00043F4801332D322FA0CFE10EB0E0023FAE4
:1041C0000CFE41EB0E01CCF1200E03FA0EFE10EBBB
:1041D0000E0051F10001B1F5801FCCF1200E32D25A
:1041E00001EB045112FA0EF2BDE8104058BF7047BF
:1041F000401C38BF5FEA420218BF7047002814BF56
:1042000020F0010041F100014FEA410313F5001FC6
:1042100038BF7047A1F1C04100F0F6BA012A43EB64
:104220000302ACF1200CDCF11F0E32BF4FF0000E88
:1042300023FA0CF310EB030041EB0451B4EB115FD4
:10424000D0D0A1EB045101F5801149085FEA30009C
:1042500001EB04510ED350F1000038BF12FA0EFEEC
:1042600008D1BDE81040C9E7401C38BF5FEA4202F0
:10427000CAD1C3E7BDE810404FEA410313F5001F60
:1042800038BF7047A1F1C04100F0BEBA9EEA445F5A
:1042900008D011EA5E0FBDE8104004BF01F00041F4
:1042A00000207047BDE8104070B500F05FFA00BF15
:1042B00064FBBE3E0000E0FF2DE9C04130B4DFF8F2
:1042C000A0C23CEA111418BF3CEA131400F0EC80C1
:1042D00081EA03051CEA111444EAD57418BF1CEAEC
:1042E000131500F0C780A4EB05044FF0004545EA24
:1042F000C12145EAC32341EA505143EA525304F134
:104300007F74994204F500344FEAC0204FEAC2227C
:1043100008BF904200F09C804FEA13650FF24016F0
:10432000765D4FEA134506FB05F7C7F1807706FB7C
:1043300007F74FEAD737A7FB03687642C8F58038FE
:10434000A7FB06CE38BFA8F1010807FB08E64FF02F
:10435000000EA6FB028CE6FB03CEDCF1000CCEF1D6
:10436000004E38BFAEF1010EA6FB0C584FF000070F
:104370004FF00005E6FB0E87A1FB08C6A0FB07CEA9
:1043800016EB0E0645F10005E1FB076515F1E04E61
:104390007EBFA4F580345FEA46066D4116F18007C2
:1043A00045F100054FEA17274FEA066647EA056719
:1043B000A6F1DE46B6F1805F4FEA15251FD93846D3
:1043C00024F0010C05EBC471BCF1FE6F01EB0C1184
:1043D00002D8F0BCBDE8008124425CBF01F5801E1C
:1043E0009EEAC47F02D4F0BCBDE80081244238D4E8
:1043F000F0BCA1F1C041BDE8004100F005BA4FEAB0
:10440000D22242EA43524FEAD323A7FB02864FEA65
:10441000D02040EA415007FB03661EEA0E0F4FEA28
:10442000D12105FB026658BFA6EB0056B6EB00563D
:104430004FEA520E4EEAC37E18EB0E0E56EB530EA9
:10444000BDD518EB02085E417F1C55F10005B6E7AB
:104450004FF480154FF000074FF000064FF00008B2
:10446000ADE7F0BC4FF0000001F1C04101F00041A8
:10447000BDE8008111EA0C1F0CEA131500D00CE016
:1044800013EA0C1F00F025804FF00000F0BC81EA19
:10449000030101F00041BDE80081F0BCBDE800412E
:1044A00081EA030100F0B0B9F0BCBDE8004170B58D
:1044B00000F05CF9097EFC3E00F007B881EA0301D8
:1044C0004FF0000001F00041704781EA030100F065
:1044D0009BB9F0BCBDE800414FF000002149704796
:1044E000FFFDFBF9F7F5F4F2F0EEEDEBE9E8E6E4B9
:1044F000E3E1E0DEDDDBDAD8D7D5D4D3D1D0CFCD40
:10450000CCCBCAC8C7C6C5C4C2C1C0BFBEBDBCBB78
:10451000BAB9B8B7B6B5B4B3B2B1B0AFAEADACAB73
:10452000AAA9A8A8A7A6A5A4A3A3A2A1A09F9F9E4D
:104530009D9C9C9B9A9999989797969595949393FF
:10454000929191908F8F8E8E8D8C8C8B8B8A898996
:104550008888878786858584848383828281818019
:104560000000FF070000F87F4FEA1153A3F58063B6
:10457000D3F11E03A8BFD3F1200C08DB4FF000429B
:1045800042EAC12252EA505232FA03F0704709421D
:104590000BD4102BC4BF0020704703F5787CBCF10E
:1045A000FF3F05D04FF0FF3070474FF000007047DD
:1045B00070B500F0DBF800BF4992248000207047FE
:1045C000F0E710F0004248BF4042B0FA80F310FA22
:1045D00003F10AD0C3F11D0303F580634FEA415094
:1045E00002EB035202EBD12170474FF000007047FD
:1045F000B0FA80F310FA03F10AD0C3F11D0303F5FA
:1046000080634FEA41504FEA035202EBD1217047D9
:104610004FF0000070470000DFF848C170B51CEA99
:10462000111E1EBF1CEA13159EEA0C0F95EA0C0F13
:1046300000F06F8081EA030423EA4C134EEAD47E33
:1046400021EA4C1141F4801143F48013AE44A1FBE4
:10465000024CA0FB0365AEF17F7E361955EB0C05CD
:10466000A1FB034C4CF10003A0FB021C16EB0C0653
:10467000654153F10003094218BF46F0010613F4E7
:10468000007F0BD14FEA03314FEA0530340341EA92
:10469000155140EA16506FF003020AE04FEAC321B9
:1046A0004FEAC520F40241EA555140EA56506FF0F6
:1046B000020202EB2E4201EB025585EACE710AD0CE
:1046C0005FEA440C18BF24F0004450F1000041F1AF
:1046D000000120EAD47040F2FE7C624500D270BD39
:1046E000A84214BF4FF080444FF04044002E08BF52
:1046F0000024BEF1806FA8BFA1F1C041BDE87040A9
:1047000080F282804FF0000001F1C04101F00041D1
:1047100070479EEA0C0F0CEA131518BF95EA0C0FB0
:1047200006D04FF0000081EA030E0EF0004170BD8C
:1047300000F01CF88900013E00F007B800F009B84D
:104740004FEA430C5FEA5C5C08D081EA030100F0A9
:104750005BB84FEA410C5FEA5C5CF6D14FF00000B9
:10476000014970470000FF070000F87F0EF1020EBC
:104770002EF0030E5EF8046B364205D4012A43EB9B
:10478000030515F5001F12D8012841EB010C1CF59B
:10479000001F0CD80ED14FEAD17C15F5001F0CEB91
:1047A0004C0C0CF1020C08BF4CEBD37C04E04FF036
:1047B000080C01E04FEAD37C0CEB4C0526FA05F619
:1047C00006F00706B6F1040C06D20EEB860CBDE827
:1047D00070404CF0010C6047DFE80CF0090B02025E
:1047E0004FF000414FF00000A1F5002170BD1946C7
:1047F0001046012851EB010418BFD4F5001484BF02
:10480000002001F0004170BD0808A0F500114FEA3A
:104810003101704791EA030F10B581F000413FF577
:10482000ABAC83F0004300F009B8000010B591EA8A
:10483000030F48BF83F000433FF59EAC841A71EB31
:10484000030C07D212198CF0004C43EB0C03001B35
:1048500061EB0C01DFF8A4E14FEA1154A4EB135C07
:104860001EEA430F18BF9EEA445F00F0B08023EABF
:104870006E03524221EA0451C3EB6E0338BF5B1E44
:10488000DCF1200E25D322FA0CFE10EB0E0043FAC9
:104890000CFE41EB0E01CCF1200E03FA0EFE10EBE4
:1048A0000E0051F10001CCF1200E29D412FA0EF2C3
:1048B00001EB0451BDE8104058BF7047401C1CBFBD
:1048C000B2F1004F704700280CBF491C20F00100D6
:1048D000704712EB020E43EB030218BF4FF0010EBC
:1048E0004EEA4202ACF1200CDCF11E0E54D943FA20
:1048F0000CFE10EB0E0051F1FF31CCF11E0ED5D5A0
:104900000EF1010E12FA0EFE404141EB010101EBE6
:10491000445C5FEA5C5C10D910EBDE7001EB045183
:1049200038BFBEF1004FBDE8104018BF70470028E7
:104930000CBF491C20F00100704730D24FEAD42C44
:1049400011F5001124F400641BD0B1FA81F20B3A86
:10495000A41AA41ED2F12003914030FA03F31943A4
:10496000904001EBCC71002C01EB0451BDE81040EC
:10497000A8BF704701F1C0414FF0000001F00041B5
:104980007047B0FA80F310FA03F100D110BDE41AB9
:10499000173C4805C90AE4E701EB045110BD491072
:1049A00001EB0451BDE810404FEA300002E04FF047
:1049B000000170474A0008BF0042F8D0B2F5001F5E
:1049C00028BF704701F000414FF0000070479EEA99
:1049D000445F07D011EA5E0FBDE8104004BF00211C
:1049E00000207047BDE8104070B5FFF7BFFE00BF64
:1049F00040DFF63E83F00041104670470000E0FFC4
:104A000043004FEAD30C4FEA3C0C43401FBF400722
:104A10000CF1605113F0FE4F70471CF0006F03D192
:104A200000200CF0004170470CF0004343EA507046
:104A300010B540EACC0000F02DF900BF0000009254
:104A40004FEA0001FFF7E0BE4FF000414FF00000D9
:104A5000A1F500217047401058BFC0F140404910F7
:104A600058BFC1F140418142EFF300807047000020
:104A70004FF47F0C1CEAD0121EBF1CEAD11392EA3D
:104A80000C0F93EA0C0F00F0858090EA010F48BFED
:104A900042F4807240F4000C41F400002CF07F419D
:104AA00020F07F4000B58142A2EB03020FF2081C08
:104AB000ACEB504EC0F100009EF800E04FEA4E0E05
:104AC00000FB0EFC38BF49004FEA2C1C02F5FA022D
:104AD0000CFB0EF34FEACE1E4FEA112C4FEAC12118
:104AE0000EEB635E42EB22420EFB0CFC4FEA1C53C2
:104AF00000FB03114FEA112C4FEA01310EFB0CFCB5
:104B00004FEADC4C00FB0C11C14228BF09184CEBEA
:104B100003335DF804EB10EB410143EBC250B2F5F7
:104B20007C0F38BF704729D512F0F00F1CBF00F181
:104B3000C04000F0004070470081828384858687F2
:104B400088898B8C8D8E8F919293959697999A9C4C
:104B50009D9FA0A2A3A5A7A8AAACAEB0B2B3B5B7BB
:104B6000B9BCBEC0C2C5C7C9CCCED1D4D7D9DCDF91
:104B7000E2E6E9ECF0F3F7FAFE0000004FEA400C41
:104B80000CF1807CBCF17E4F28BF7047B0F1C04073
:104B900000F0C6B890EA010F0CEAD11348BF42F406
:104BA0008072624538BF634507D213F47F0F16D079
:104BB00080EA010000F00040704710B500F06AF88C
:104BC000097EFC3E00F005B880EA010000F00040DC
:104BD000704780EA010000F0004000F0A1B812F434
:104BE0007F0F04BF0248704780EA010000F098B8C8
:104BF0000000C07F41000B0ED3F19E0208D950F493
:104C000000034FEA032323FA02F048BF40427047F3
:104C100010B500F03FF800BF499224800020704793
:104C20006FF0004282EA20007047000050EA010C59
:104C300000F113801CF5000F58BFBCF5000F01D424
:104C40008842704707D710F5000F58BF11F5000FC5
:104C500015D488427047894270471CF5000F04D56F
:104C6000BCF5000FF7D5814270474FF0807C1CEBFC
:104C7000400F38BF1CEB410F01D28142704710B585
:104C800000F008F8922449004FF000504FF0805196
:104C9000FFF7E1BE0EF1020E2EF0030E5EF8044B9C
:104CA000244204D44FEA4102B2F17F4F11D84FEAB7
:104CB0004003B3F17F4F0CD80ED14FEAD07CB2F154
:104CC0007F4F0CEB4C0C0CF1020C08BF4CEBD17C71
:104CD00004E04FF0080C01E04FEAD17C0CEB4C03F0
:104CE00024FA03F404F00704B4F1040C06D20EEB2A
:104CF000840CBDE810404CF0010C6047DFE80CF07C
:104D0000070802024FF00040A0F5800010BD0846E1
:104D1000420018BFD2F1807288BF00F0004010BD81
:104D2000FF2141EAD050C005704751EA000C00F164
:104D300013801CF5000F58BFBCF5000F01D4814251
:104D4000704707D711F5000F58BF10F5000F15D4A5
:104D500081427047894270471CF5000F04D5BCF5AD
:104D6000000FF7D5884270474FF0807C1CEB410F55
:104D700038BF1CEB400F01D28842704780EA010027
:104D800081EA000180EA0100FFF779BFFEF71ABB54
:104D90000400000800000000000000020001000004
:104DA000100000000000000000000000303132332D
:104DB000343536373839414243444546403058004F
:104DC0003031323334353637383961626364656681
:104DD0004030780002400000000000A00000000009
:104DE00005400000000000C8000000000C4000006A
:104DF0000000409C00000000194000000020BCBEE4
:104E00000000000034400000BFC91B8E00000004F9
:104E1000B5400000504BCFD06607E2CF0100000044
:104E20006C4100003E8251AADFEEA7340100000071
:104E3000D9420000DCB5A0E23A301F97FFFFFFFF28
:104E4000B4450000FD25A0C8E9A3C14FFFFFFFFF47
:104E5000FF3F00000000008000000000FF3F000056
:104E60000000008000000000B44F00080000002097
:104E70007C00000028010008305000087C00002061
:104E8000BC300000440100081C000000430000008A
:104E9000F8FFFFFF0C0000000E0000000F000000F4
:104EA0002E0000001001000043000000F8FFFFFF8B
:104EB000004040404040404040404141414141402D
:104EC00040404040404040404040404040404040E2
:104ED0004005020202020202020202020202020271
:104EE0000220202020202020202020020202020276
:104EF00002029090909090901010101010101010CE
:104F000010101010101010101010101002020202D9
:104F1000020288888888888808080808080808081D
:104F20000808080808080808080808080202020219
:104F30004000000000000000000000000000000031
:104F40000000000000000000000000000000000061
:104F50000000000000000000000000000000000051
:104F60000000000000000000000000000000000041
:104F70000000000000000000000000000000000031
:104F80000000000000000000000000000000000021
:104F90000000000000000000000000000000000011
:104FA0000000000000000000000000000000000001
:104FB00000000000000000000000000000000000F1
:104FC00000A24A04000000000000000001020304E7
:104FD00006070809000000000000000000000000B3
:104FE000000100000000000000000000295C8FC2EA
:104FF000F528044000000000000000000000000050
:1050000000000000000000000000000000000000A0
:105010000000000000000000000000000000000090
:10502000010203040102030406070809020406083A
:04000005080000ED02
:00000001FF
